{"abi":[{"type":"function","name":"AAVE_V3","inputs":[],"outputs":[{"name":"","type":"address","internalType":"address"}],"stateMutability":"view"},{"type":"function","name":"COW_SETTLEMENT","inputs":[],"outputs":[{"name":"","type":"address","internalType":"address"}],"stateMutability":"view"},{"type":"function","name":"COW_VAULT_RELAYER","inputs":[],"outputs":[{"name":"","type":"address","internalType":"address"}],"stateMutability":"view"},{"type":"function","name":"DAI","inputs":[],"outputs":[{"name":"","type":"address","internalType":"address"}],"stateMutability":"view"},{"type":"function","name":"PERMIT2","inputs":[],"outputs":[{"name":"","type":"address","internalType":"address"}],"stateMutability":"view"},{"type":"function","name":"POOL_DATA_PROVIDER","inputs":[],"outputs":[{"name":"","type":"address","internalType":"address"}],"stateMutability":"view"},{"type":"function","name":"POOL_MANAGER","inputs":[],"outputs":[{"name":"","type":"address","internalType":"address"}],"stateMutability":"view"},{"type":"function","name":"STETH","inputs":[],"outputs":[{"name":"","type":"address","internalType":"address"}],"stateMutability":"view"},{"type":"function","name":"SUBSCRIPTION","inputs":[],"outputs":[{"name":"","type":"address","internalType":"address"}],"stateMutability":"view"},{"type":"function","name":"UNISWAPX_REACTOR","inputs":[],"outputs":[{"name":"","type":"address","internalType":"address"}],"stateMutability":"view"},{"type":"function","name":"UNISWAP_V3_NONFUNGIBLE_POSITION_MANAGER","inputs":[],"outputs":[{"name":"","type":"address","internalType":"address"}],"stateMutability":"view"},{"type":"function","name":"UNISWAP_V3_ROUTER","inputs":[],"outputs":[{"name":"","type":"address","internalType":"address"}],"stateMutability":"view"},{"type":"function","name":"UNISWAP_V4_ROUTER","inputs":[],"outputs":[{"name":"","type":"address","internalType":"address"}],"stateMutability":"view"},{"type":"function","name":"UNSTETH","inputs":[],"outputs":[{"name":"","type":"address","internalType":"address"}],"stateMutability":"view"},{"type":"function","name":"USDC","inputs":[],"outputs":[{"name":"","type":"address","internalType":"address"}],"stateMutability":"view"},{"type":"function","name":"USDT","inputs":[],"outputs":[{"name":"","type":"address","internalType":"address"}],"stateMutability":"view"},{"type":"function","name":"VAULT_IMPL","inputs":[],"outputs":[{"name":"","type":"address","internalType":"address"}],"stateMutability":"view"},{"type":"function","name":"WBTC","inputs":[],"outputs":[{"name":"","type":"address","internalType":"address"}],"stateMutability":"view"},{"type":"function","name":"WETH","inputs":[],"outputs":[{"name":"","type":"address","internalType":"address"}],"stateMutability":"view"},{"type":"function","name":"WHITE_LIST","inputs":[],"outputs":[{"name":"","type":"address","internalType":"address"}],"stateMutability":"view"}],"bytecode":{"object":"0x60808060405234601957610449908161001e823930815050f35b5f80fdfe6080806040526004361015610012575f80fd5b5f3560e01c9081630ffe8a07146103f0575080631a5c49d2146103c7578063321394961461039e57806341c64a2f146103755780634dede3de1461034c5780635c31bda91461032957806362308e85146103055780636afdd850146102e157806374320225146102b8578063875f91801461029357806389a302711461026a5780639178977614610241578063991b0ddd1461021b578063a8bbb8a0146101f2578063ad5c4648146101c9578063ae567640146101a0578063c54e44eb14610177578063dd23b99d1461014e578063e00bfe50146101255763e0bab4c4146100f8575f80fd5b5f600319360112610121576020604051736b175474e89094c44da98b954eedeac495271d0f8152f35b5f80fd5b5f60031936011261012157602060405173ae7ab96520de3a18e5e111b5eaab095312d7fe848152f35b5f600319360112610121576020604051738d1a105bbd2818a8d5915f726259afe0ff0680b68152f35b5f60031936011261012157602060405173dac17f958d2ee523a2206206994597c13d831ec78152f35b5f600319360112610121576020604051730a16f2fcc0d44fae41cc54e079281d84a363becd8152f35b5f60031936011261012157602060405173c02aaa39b223fe8d0a0e5c4f27ead9083c756cc28152f35b5f60031936011261012157602060405173889edc2edab5f40e902b864ad4d7ade8e412f9b18152f35b5f6003193601126101215760206040517011f84b9aa48e5f8aa8b9897600006289be8152f35b5f60031936011261012157602060405173c36442b4a4522e871399cd717abdd847ab11fe888152f35b5f60031936011261012157602060405173a0b86991c6218b36c1d19d4a2e9eb0ce3606eb488152f35b5f6003193601126101215760206040516ff79c187e28a5d84eac48c475cbb574a58152f35b5f600319360112610121576020604051739008d19f58aabd9ed0d60971565aa8510560ab418152f35b5f6003193601126101215760206040516e22d473030f116ddee9f6b43ac78ba38152f35b5f6003193601126101215760206040516e04444c5dc75cb358380d2e3de08a908152f35b5f6003193601126101215760206040516d44a361ae3cac094c9d1b14eece978152f35b5f600319360112610121576020604051732260fac5e5542a773aa44fbcfedf7c193bc2c5998152f35b5f6003193601126101215760206040517368b3465833fb72a70ecdf485e0e4c7bd8665fc458152f35b5f600319360112610121576020604051732f39d218133afab8f2b819b1066c7e434ad94e9e8152f35b5f60031936011261012157602060405173c92e8bdf79f0507f65a392b0ab4667716bfe01108152f35b5f60031936011261012157806f99e7d10b6169a893c037a4c4e237b85360209252f3fea2646970667358221220188c3bf72d5e18ed0500fd7bdff115490e7e16d90155151d438277c40593f4ba64736f6c63430008220033","linkReferences":{}},"methodIdentifiers":{"AAVE_V3()":"32139496","COW_SETTLEMENT()":"74320225","COW_VAULT_RELAYER()":"1a5c49d2","DAI()":"e0bab4c4","PERMIT2()":"6afdd850","POOL_DATA_PROVIDER()":"ae567640","POOL_MANAGER()":"62308e85","STETH()":"e00bfe50","SUBSCRIPTION()":"0ffe8a07","UNISWAPX_REACTOR()":"991b0ddd","UNISWAP_V3_NONFUNGIBLE_POSITION_MANAGER()":"91789776","UNISWAP_V3_ROUTER()":"41c64a2f","UNISWAP_V4_ROUTER()":"5c31bda9","UNSTETH()":"a8bbb8a0","USDC()":"89a30271","USDT()":"c54e44eb","VAULT_IMPL()":"dd23b99d","WBTC()":"4dede3de","WETH()":"ad5c4648","WHITE_LIST()":"875f9180"},"id":52}