{"abi":[{"type":"function","name":"AAVE_V3","inputs":[],"outputs":[{"name":"","type":"address","internalType":"address"}],"stateMutability":"view"},{"type":"function","name":"COW_SETTLEMENT","inputs":[],"outputs":[{"name":"","type":"address","internalType":"address"}],"stateMutability":"view"},{"type":"function","name":"COW_VAULT_RELAYER","inputs":[],"outputs":[{"name":"","type":"address","internalType":"address"}],"stateMutability":"view"},{"type":"function","name":"DAI","inputs":[],"outputs":[{"name":"","type":"address","internalType":"address"}],"stateMutability":"view"},{"type":"function","name":"PERMIT2","inputs":[],"outputs":[{"name":"","type":"address","internalType":"address"}],"stateMutability":"view"},{"type":"function","name":"POOL_DATA_PROVIDER","inputs":[],"outputs":[{"name":"","type":"address","internalType":"address"}],"stateMutability":"view"},{"type":"function","name":"POOL_MANAGER","inputs":[],"outputs":[{"name":"","type":"address","internalType":"address"}],"stateMutability":"view"},{"type":"function","name":"STETH","inputs":[],"outputs":[{"name":"","type":"address","internalType":"address"}],"stateMutability":"view"},{"type":"function","name":"SUBSCRIPTION","inputs":[],"outputs":[{"name":"","type":"address","internalType":"address"}],"stateMutability":"view"},{"type":"function","name":"UNISWAPX_REACTOR","inputs":[],"outputs":[{"name":"","type":"address","internalType":"address"}],"stateMutability":"view"},{"type":"function","name":"UNISWAP_V3_NONFUNGIBLE_POSITION_MANAGER","inputs":[],"outputs":[{"name":"","type":"address","internalType":"address"}],"stateMutability":"view"},{"type":"function","name":"UNISWAP_V3_ROUTER","inputs":[],"outputs":[{"name":"","type":"address","internalType":"address"}],"stateMutability":"view"},{"type":"function","name":"UNISWAP_V4_ROUTER","inputs":[],"outputs":[{"name":"","type":"address","internalType":"address"}],"stateMutability":"view"},{"type":"function","name":"UNSTETH","inputs":[],"outputs":[{"name":"","type":"address","internalType":"address"}],"stateMutability":"view"},{"type":"function","name":"USDC","inputs":[],"outputs":[{"name":"","type":"address","internalType":"address"}],"stateMutability":"view"},{"type":"function","name":"USDT","inputs":[],"outputs":[{"name":"","type":"address","internalType":"address"}],"stateMutability":"view"},{"type":"function","name":"VAULT_IMPL","inputs":[],"outputs":[{"name":"","type":"address","internalType":"address"}],"stateMutability":"view"},{"type":"function","name":"WBTC","inputs":[],"outputs":[{"name":"","type":"address","internalType":"address"}],"stateMutability":"view"},{"type":"function","name":"WETH","inputs":[],"outputs":[{"name":"","type":"address","internalType":"address"}],"stateMutability":"view"},{"type":"function","name":"WHITE_LIST","inputs":[],"outputs":[{"name":"","type":"address","internalType":"address"}],"stateMutability":"view"}],"bytecode":{"object":"0x6080806040523460195761044a908161001e823930815050f35b5f80fdfe6080806040526004361015610012575f80fd5b5f3560e01c9081630ffe8a07146103f1575080631a5c49d2146103c8578063321394961461039f57806341c64a2f146103765780634dede3de1461034d5780635c31bda91461032a57806362308e85146103015780636afdd850146102dd57806374320225146102b4578063875f91801461028f57806389a302711461026a5780639178977614610241578063991b0ddd1461021b578063a8bbb8a0146101f2578063ad5c4648146101c9578063ae567640146101a0578063c54e44eb14610177578063dd23b99d1461014e578063e00bfe50146101255763e0bab4c4146100f8575f80fd5b5f600319360112610121576020604051733e622317f8c93f7328350cf0b56d9ed4c620c5d68152f35b5f80fd5b5f600319360112610121576020604051733e3fe7dbc6b4c189e7128855dd526361c49b40af8152f35b5f600319360112610121576020604051738d1a105bbd2818a8d5915f726259afe0ff0680b68152f35b5f600319360112610121576020604051737169d38820dfd117c3fa1f22a697dba58d90ba068152f35b5f600319360112610121576020604051733e9708d80f7b3e43118013075f7e95ce3ab31f318152f35b5f600319360112610121576020604051737b79995e5f793a07bc00c21412e50ecae098e7f98152f35b5f600319360112610121576020604051731583c7b3f4c3b008720e6bce5726336b0ab25fdd8152f35b5f6003193601126101215760206040517011f84b9aa48e5f8aa8b9897600006289be8152f35b5f60031936011261012157602060405173c36442b4a4522e871399cd717abdd847ab11fe888152f35b5f6003193601126101215760206040516f100aaaf8cff772a414b18168fa758af98152f35b5f6003193601126101215760206040516ff79c187e28a5d84eac48c475cbb574a58152f35b5f600319360112610121576020604051739008d19f58aabd9ed0d60971565aa8510560ab418152f35b5f6003193601126101215760206040516e22d473030f116ddee9f6b43ac78ba38152f35b5f60031936011261012157602060405173e03a1074c86cfedd5c142c4f04f1a1536e2035438152f35b5f6003193601126101215760206040516d44a361ae3cac094c9d1b14eece978152f35b5f6003193601126101215760206040517329f2d40b0605204364af54ec677bd022da425d038152f35b5f600319360112610121576020604051733bfa4769fb09eefc5a80d6e87c3b9c650f7ae48e8152f35b5f60031936011261012157602060405173012bac54348c0e635dcac9d5fb99f06f24136c9a8152f35b5f60031936011261012157602060405173c92e8bdf79f0507f65a392b0ab4667716bfe01108152f35b5f60031936011261012157806f99e7d10b6169a893c037a4c4e237b85360209252f3fea264697066735822122026cee444fb8933d94aa62168708f281856b766a7f201d57a09e7eade212feaaa64736f6c63430008220033","linkReferences":{}},"methodIdentifiers":{"AAVE_V3()":"32139496","COW_SETTLEMENT()":"74320225","COW_VAULT_RELAYER()":"1a5c49d2","DAI()":"e0bab4c4","PERMIT2()":"6afdd850","POOL_DATA_PROVIDER()":"ae567640","POOL_MANAGER()":"62308e85","STETH()":"e00bfe50","SUBSCRIPTION()":"0ffe8a07","UNISWAPX_REACTOR()":"991b0ddd","UNISWAP_V3_NONFUNGIBLE_POSITION_MANAGER()":"91789776","UNISWAP_V3_ROUTER()":"41c64a2f","UNISWAP_V4_ROUTER()":"5c31bda9","UNSTETH()":"a8bbb8a0","USDC()":"89a30271","USDT()":"c54e44eb","VAULT_IMPL()":"dd23b99d","WBTC()":"4dede3de","WETH()":"ad5c4648","WHITE_LIST()":"875f9180"},"id":52}