{"abi":[{"type":"constructor","inputs":[{"name":"aaveV3_","type":"address","internalType":"address"},{"name":"poolDataProvider_","type":"address","internalType":"address"}],"stateMutability":"nonpayable"},{"type":"function","name":"aaveV3","inputs":[],"outputs":[{"name":"","type":"address","internalType":"address"}],"stateMutability":"view"},{"type":"function","name":"getSuppliedBalance","inputs":[{"name":"asset","type":"address","internalType":"address"}],"outputs":[{"name":"","type":"uint256","internalType":"uint256"}],"stateMutability":"view"},{"type":"function","name":"initialize","inputs":[{"name":"newOwner","type":"address","internalType":"address"}],"outputs":[],"stateMutability":"nonpayable"},{"type":"function","name":"owner","inputs":[],"outputs":[{"name":"","type":"address","internalType":"address"}],"stateMutability":"view"},{"type":"function","name":"poolDataProvider","inputs":[],"outputs":[{"name":"","type":"address","internalType":"address"}],"stateMutability":"view"},{"type":"function","name":"renounceOwnership","inputs":[],"outputs":[],"stateMutability":"nonpayable"},{"type":"function","name":"supply","inputs":[{"name":"asset","type":"address","internalType":"address"},{"name":"amount","type":"uint256","internalType":"uint256"}],"outputs":[],"stateMutability":"payable"},{"type":"function","name":"transferOwnership","inputs":[{"name":"newOwner","type":"address","internalType":"address"}],"outputs":[],"stateMutability":"nonpayable"},{"type":"function","name":"withdraw","inputs":[{"name":"asset","type":"address","internalType":"address"},{"name":"amount","type":"uint256","internalType":"uint256"}],"outputs":[],"stateMutability":"nonpayable"},{"type":"event","name":"Initialized","inputs":[{"name":"version","type":"uint8","indexed":false,"internalType":"uint8"}],"anonymous":false},{"type":"event","name":"OwnershipTransferred","inputs":[{"name":"previousOwner","type":"address","indexed":true,"internalType":"address"},{"name":"newOwner","type":"address","indexed":true,"internalType":"address"}],"anonymous":false}],"bytecode":{"object":"0x60c0346100d257601f61121038819003918201601f19168301916001600160401b038311848410176100d65780849260409485528339810103126100d257610052602061004b836100ea565b92016100ea565b5f8054336001600160a01b0319821681178355604051949290916001600160a01b0316907f8be0079c531659141344cd1fd0a4f28419497f9722a3daafe3b4186f6b6457e09080a360805260a05261111190816100ff823960805181818160e6015281816104290152610a6f015260a051818181610af10152610c160152f35b5f80fd5b634e487b7160e01b5f52604160045260245ffd5b51906001600160a01b03821682036100d25756fe6080806040526004361015610012575f80fd5b5f905f3560e01c908163227a1a5814610b9157508063715018a614610b1557806383af752c14610ac55780638da5cb5b14610a93578063a67d140814610a43578063c4d66de814610876578063f2b9fdb81461035c578063f2fde38b146102915763f3fef3a314610081575f80fd5b3461028e57604060031936011261028e5761009a610ca4565b6100a2610d6e565b604051907f026b1d5f00000000000000000000000000000000000000000000000000000000825260208260048173ffffffffffffffffffffffffffffffffffffffff7f0000000000000000000000000000000000000000000000000000000000000000165afa918215610236578392610241575b50602073ffffffffffffffffffffffffffffffffffffffff606481938660405195869485937f69328dec00000000000000000000000000000000000000000000000000000000855216978860048501526024356024850152306044850152165af19081156102365783916101fe575b506040517fa9059cbb00000000000000000000000000000000000000000000000000000000602082015233602482015260448101919091526101fb916101f682606481015b037fffffffffffffffffffffffffffffffffffffffffffffffffffffffffffffffe08101845283610cc7565b610e55565b80f35b90506020813d60201161022e575b8161021960209383610cc7565b8101031261022a57516101fb610185565b5f80fd5b3d915061020c565b6040513d85823e3d90fd5b73ffffffffffffffffffffffffffffffffffffffff80929350606461027d602093843d8611610287575b6102758183610cc7565b810190610d42565b9493505050610116565b503d61026b565b80fd5b503461028e57602060031936011261028e576102ab610ca4565b6102b3610d6e565b73ffffffffffffffffffffffffffffffffffffffff8116156102d8576101fb90610dec565b60846040517f08c379a000000000000000000000000000000000000000000000000000000000815260206004820152602660248201527f4f776e61626c653a206e6577206f776e657220697320746865207a65726f206160448201527f64647265737300000000000000000000000000000000000000000000000000006064820152fd5b50604060031936011261022a57610371610ca4565b73ffffffffffffffffffffffffffffffffffffffff60243591610392610d6e565b166103e66040517f23b872dd000000000000000000000000000000000000000000000000000000006020820152336024820152306044820152836064820152606481526103e0608482610cc7565b82610e55565b6040517f026b1d5f00000000000000000000000000000000000000000000000000000000815260208160048173ffffffffffffffffffffffffffffffffffffffff7f0000000000000000000000000000000000000000000000000000000000000000165afa80156107ed5773ffffffffffffffffffffffffffffffffffffffff915f91610857575b506040517fdd62ed3e000000000000000000000000000000000000000000000000000000008152306004820152911673ffffffffffffffffffffffffffffffffffffffff811660248301529290602081604481865afa9081156107ed575f91610825575b508181018091116107f8576040517f095ea7b300000000000000000000000000000000000000000000000000000000602082015273ffffffffffffffffffffffffffffffffffffffff851660248201526044808201929092529081526105439061053d606482610cc7565b83610e55565b823b1561022a57604051907f617ba03700000000000000000000000000000000000000000000000000000000825282600483015260248201523060448201525f60648201525f8160848183875af180156107ed576107d8575b506040517fdd62ed3e00000000000000000000000000000000000000000000000000000000815230600482015273ffffffffffffffffffffffffffffffffffffffff8316602482015290602082604481845afa9182156107cd578492610799575b5081610607578380f35b6040517fdd62ed3e00000000000000000000000000000000000000000000000000000000815230600482015273ffffffffffffffffffffffffffffffffffffffff8416602482015292602084604481855afa93841561078e57859461075a575b508284106106d6576040517f095ea7b300000000000000000000000000000000000000000000000000000000602082015273ffffffffffffffffffffffffffffffffffffffff90911660248201529190920360448201526106cf916101f682606481016101ca565b5f80808380f35b60846040517f08c379a000000000000000000000000000000000000000000000000000000000815260206004820152602960248201527f5361666545524332303a2064656372656173656420616c6c6f77616e6365206260448201527f656c6f77207a65726f00000000000000000000000000000000000000000000006064820152fd5b9093506020813d602011610786575b8161077660209383610cc7565b8101031261022a5751925f610667565b3d9150610769565b6040513d87823e3d90fd5b9091506020813d6020116107c5575b816107b560209383610cc7565b8101031261022a5751905f6105fd565b3d91506107a8565b6040513d86823e3d90fd5b6107e59193505f90610cc7565b5f915f61059c565b6040513d5f823e3d90fd5b7f4e487b71000000000000000000000000000000000000000000000000000000005f52601160045260245ffd5b90506020813d60201161084f575b8161084060209383610cc7565b8101031261022a57515f6104d2565b3d9150610833565b610870915060203d602011610287576102758183610cc7565b5f61046e565b3461022a57602060031936011261022a5761088f610ca4565b5f5460ff8160a81c161591828093610a33575b8015610a19575b15610995578183740100000000000000000000000000000000000000007fffffffffffffffffffffff00ffffffffffffffffffffffffffffffffffffffff6108fa9516175f55610953575b50610dec565b61090057005b7fffffffffffffffffffff00ffffffffffffffffffffffffffffffffffffffffff5f54165f557f7f26b83ff96e1f2b6a682f133852f6798a09c465da95921460cefb3847402498602060405160018152a1005b7fffffffffffffffffffff0000ffffffffffffffffffffffffffffffffffffffff167501010000000000000000000000000000000000000000175f55836108f4565b60846040517f08c379a000000000000000000000000000000000000000000000000000000000815260206004820152602e60248201527f496e697469616c697a61626c653a20636f6e747261637420697320616c72656160448201527f647920696e697469616c697a65640000000000000000000000000000000000006064820152fd5b50303b1580156108a95750600160ff8360a01c16146108a9565b50600160ff8360a01c16106108a2565b3461022a575f60031936011261022a57602060405173ffffffffffffffffffffffffffffffffffffffff7f0000000000000000000000000000000000000000000000000000000000000000168152f35b3461022a575f60031936011261022a57602073ffffffffffffffffffffffffffffffffffffffff5f5416604051908152f35b3461022a575f60031936011261022a57602060405173ffffffffffffffffffffffffffffffffffffffff7f0000000000000000000000000000000000000000000000000000000000000000168152f35b3461022a575f60031936011261022a57610b2d610d6e565b5f73ffffffffffffffffffffffffffffffffffffffff81547fffffffffffffffffffffffff000000000000000000000000000000000000000081168355167f8be0079c531659141344cd1fd0a4f28419497f9722a3daafe3b4186f6b6457e08280a3005b3461022a57602060031936011261022a576101208180610bfd610bb2610ca4565b7f28dd2d0100000000000000000000000000000000000000000000000000000000835273ffffffffffffffffffffffffffffffffffffffff1660048301523060248301526044820190565b038173ffffffffffffffffffffffffffffffffffffffff7f0000000000000000000000000000000000000000000000000000000000000000165afa80156107ed575f90610c50575b602090604051908152f35b50610120813d8211610c9c575b81610c6b6101209383610cc7565b8101031261022a57805160e082015164ffffffffff81160361022a57610c9661010060209301610d35565b50610c45565b3d9150610c5d565b6004359073ffffffffffffffffffffffffffffffffffffffff8216820361022a57565b90601f7fffffffffffffffffffffffffffffffffffffffffffffffffffffffffffffffe0910116810190811067ffffffffffffffff821117610d0857604052565b7f4e487b71000000000000000000000000000000000000000000000000000000005f52604160045260245ffd5b5190811515820361022a57565b9081602091031261022a575173ffffffffffffffffffffffffffffffffffffffff8116810361022a5790565b73ffffffffffffffffffffffffffffffffffffffff5f54163303610d8e57565b60646040517f08c379a000000000000000000000000000000000000000000000000000000000815260206004820152602060248201527f4f776e61626c653a2063616c6c6572206973206e6f7420746865206f776e65726044820152fd5b73ffffffffffffffffffffffffffffffffffffffff805f54921691827fffffffffffffffffffffffff00000000000000000000000000000000000000008216175f55167f8be0079c531659141344cd1fd0a4f28419497f9722a3daafe3b4186f6b6457e05f80a3565b73ffffffffffffffffffffffffffffffffffffffff16905f8060405192610e7d604085610cc7565b602084527f5361666545524332303a206c6f772d6c6576656c2063616c6c206661696c6564602085015260208151910182865af13d15610fcd573d9067ffffffffffffffff8211610d0857610f119360207fffffffffffffffffffffffffffffffffffffffffffffffffffffffffffffffe0601f8501160192610f036040519485610cc7565b83523d5f602085013e610fd6565b8051908115918215610fab575b505015610f2757565b60846040517f08c379a000000000000000000000000000000000000000000000000000000000815260206004820152602a60248201527f5361666545524332303a204552433230206f7065726174696f6e20646964206e60448201527f6f742073756363656564000000000000000000000000000000000000000000006064820152fd5b819250906020918101031261022a576020610fc69101610d35565b5f80610f1e565b91610f11926060915b919290156110515750815115610fea575090565b3b15610ff35790565b60646040517f08c379a000000000000000000000000000000000000000000000000000000000815260206004820152601d60248201527f416464726573733a2063616c6c20746f206e6f6e2d636f6e74726163740000006044820152fd5b8251909150156110645750805190602001fd5b60446020917fffffffffffffffffffffffffffffffffffffffffffffffffffffffffffffffe0601f6040519485937f08c379a00000000000000000000000000000000000000000000000000000000085528160048601528051918291826024880152018686015e5f85828601015201168101030190fdfea26469706673582212202d765c7c25ba00e983bfe0a75a4f1ee83c70239e5615c48374fa34f24a6bea8b64736f6c63430008220033","linkReferences":{}},"methodIdentifiers":{"aaveV3()":"a67d1408","getSuppliedBalance(address)":"227a1a58","initialize(address)":"c4d66de8","owner()":"8da5cb5b","poolDataProvider()":"83af752c","renounceOwnership()":"715018a6","supply(address,uint256)":"f2b9fdb8","transferOwnership(address)":"f2fde38b","withdraw(address,uint256)":"f3fef3a3"},"id":66}