{"abi":[{"type":"receive","stateMutability":"payable"},{"type":"function","name":"DOMAIN_SEPARATOR","inputs":[],"outputs":[{"name":"","type":"bytes32","internalType":"bytes32"}],"stateMutability":"view"},{"type":"function","name":"allowance","inputs":[{"name":"","type":"address","internalType":"address"},{"name":"","type":"address","internalType":"address"}],"outputs":[{"name":"","type":"uint256","internalType":"uint256"}],"stateMutability":"view"},{"type":"function","name":"approve","inputs":[{"name":"spender","type":"address","internalType":"address"},{"name":"amount","type":"uint256","internalType":"uint256"}],"outputs":[{"name":"","type":"bool","internalType":"bool"}],"stateMutability":"nonpayable"},{"type":"function","name":"balanceOf","inputs":[{"name":"","type":"address","internalType":"address"}],"outputs":[{"name":"","type":"uint256","internalType":"uint256"}],"stateMutability":"view"},{"type":"function","name":"decimals","inputs":[],"outputs":[{"name":"","type":"uint8","internalType":"uint8"}],"stateMutability":"view"},{"type":"function","name":"deposit","inputs":[],"outputs":[],"stateMutability":"payable"},{"type":"function","name":"name","inputs":[],"outputs":[{"name":"","type":"string","internalType":"string"}],"stateMutability":"view"},{"type":"function","name":"nonces","inputs":[{"name":"","type":"address","internalType":"address"}],"outputs":[{"name":"","type":"uint256","internalType":"uint256"}],"stateMutability":"view"},{"type":"function","name":"permit","inputs":[{"name":"owner","type":"address","internalType":"address"},{"name":"spender","type":"address","internalType":"address"},{"name":"value","type":"uint256","internalType":"uint256"},{"name":"deadline","type":"uint256","internalType":"uint256"},{"name":"v","type":"uint8","internalType":"uint8"},{"name":"r","type":"bytes32","internalType":"bytes32"},{"name":"s","type":"bytes32","internalType":"bytes32"}],"outputs":[],"stateMutability":"nonpayable"},{"type":"function","name":"symbol","inputs":[],"outputs":[{"name":"","type":"string","internalType":"string"}],"stateMutability":"view"},{"type":"function","name":"totalSupply","inputs":[],"outputs":[{"name":"","type":"uint256","internalType":"uint256"}],"stateMutability":"view"},{"type":"function","name":"transfer","inputs":[{"name":"to","type":"address","internalType":"address"},{"name":"amount","type":"uint256","internalType":"uint256"}],"outputs":[{"name":"","type":"bool","internalType":"bool"}],"stateMutability":"nonpayable"},{"type":"function","name":"transferFrom","inputs":[{"name":"from","type":"address","internalType":"address"},{"name":"to","type":"address","internalType":"address"},{"name":"amount","type":"uint256","internalType":"uint256"}],"outputs":[{"name":"","type":"bool","internalType":"bool"}],"stateMutability":"nonpayable"},{"type":"function","name":"withdraw","inputs":[{"name":"amount","type":"uint256","internalType":"uint256"}],"outputs":[],"stateMutability":"nonpayable"},{"type":"event","name":"Approval","inputs":[{"name":"owner","type":"address","indexed":true,"internalType":"address"},{"name":"spender","type":"address","indexed":true,"internalType":"address"},{"name":"amount","type":"uint256","indexed":false,"internalType":"uint256"}],"anonymous":false},{"type":"event","name":"Deposit","inputs":[{"name":"from","type":"address","indexed":true,"internalType":"address"},{"name":"amount","type":"uint256","indexed":false,"internalType":"uint256"}],"anonymous":false},{"type":"event","name":"Transfer","inputs":[{"name":"from","type":"address","indexed":true,"internalType":"address"},{"name":"to","type":"address","indexed":true,"internalType":"address"},{"name":"amount","type":"uint256","indexed":false,"internalType":"uint256"}],"anonymous":false},{"type":"event","name":"Withdrawal","inputs":[{"name":"to","type":"address","indexed":true,"internalType":"address"},{"name":"amount","type":"uint256","indexed":false,"internalType":"uint256"}],"anonymous":false}],"bytecode":{"object":"0x60e0604052346103f3576040516100176040826103f7565b600d81526c2bb930b83832b21022ba3432b960991b602082015260405161003f6040826103f7565b60048152630ae8aa8960e31b602082015281516001600160401b03811161031b5761006a5f5461041a565b601f8111610399575b50602092601f821160011461033a57928192935f9261032f575b50508160011b915f199060031b1c1916175f555b80516001600160401b03811161031b576100bc60015461041a565b601f81116102ad575b50602091601f821160011461024d579181925f92610242575b50508160011b915f199060031b1c1916176001555b60126080524660a0526040515f905f54918161010e8461041a565b9182825260208201946001811690815f1461022657506001146101dc575b610138925003826103f7565b51902060405160208101917f8b73c3c69bb8fe3d512ecc4cf759cc79239f7b179b0ffacaa9a75d522b39400f835260408201527fc89efdaa54c0f20c7adf612882df0950f5a951637e0307cdcb4c672f298b8bc660608201524660808201523060a082015260a081526101ac60c0826103f7565b51902060c052604051610d619081610453823960805181610627015260a05181610b19015260c05181610b3f0152f35b505f80805290915f5160206111b45f395f51905f525b81831061020a5750509060206101389282010161012c565b60209193508060019154838588010152019101909183926101f2565b60ff191686525061013892151560051b8201602001905061012c565b015190505f806100de565b601f1982169260015f52805f20915f5b8581106102955750836001951061027d575b505050811b016001556100f3565b01515f1960f88460031b161c191690555f808061026f565b9192602060018192868501518155019401920161025d565b818111156100c55760015f52601f820160051c7fb10e2d527612073b26eecdfd717e6a320cf44b4afac2b0732d9fcbe2b7fa0cf660208410610313575b81601f9101920160051c03905f5b8281106103065750506100c5565b5f828201556001016102f8565b5f91506102ea565b634e487b7160e01b5f52604160045260245ffd5b015190505f8061008d565b601f198216935f8052805f20915f5b8681106103815750836001959610610369575b505050811b015f556100a1565b01515f1960f88460031b161c191690555f808061035c565b91926020600181928685015181550194019201610349565b81811115610073575f8052601f820160051c5f5160206111b45f395f51905f52602084106103eb575b81601f9101920160051c03905f5b8281106103de575050610073565b5f828201556001016103d0565b5f91506103c2565b5f80fd5b601f909101601f19168101906001600160401b0382119082101761031b57604052565b90600182811c92168015610448575b602083101461043457565b634e487b7160e01b5f52602260045260245ffd5b91607f169161042956fe60806040526004361015610022575b3615610018575f80fd5b610020610cae565b005b5f3560e01c806306fdde03146108ed578063095ea7b31461086857806318160ddd1461084b57806323b872dd146107455780632e1a7d4d1461064b578063313ce5671461060e5780633644e515146105ec57806370a08231146105a75780637ecebe001461056257806395d89b411461046a578063a9059cbb146103d4578063d0e30db0146103c1578063d505accf146101325763dd62ed3e0361000e573461012e57604060031936011261012e576100d9610a96565b73ffffffffffffffffffffffffffffffffffffffff6100f6610ab9565b91165f52600460205273ffffffffffffffffffffffffffffffffffffffff60405f2091165f52602052602060405f2054604051908152f35b5f80fd5b3461012e5760e060031936011261012e5761014b610a96565b610153610ab9565b6044356064359260843560ff811680910361012e574285106103635760805f9160209373ffffffffffffffffffffffffffffffffffffffff610193610b16565b91169687855260058652604085209889549960018b0190556040519073ffffffffffffffffffffffffffffffffffffffff888301937f6e71edae12b1b97f4d1f60370fef10105fa2faae0126114a169c64845d6126c985528b6040850152169a8b6060840152898784015260a083015260c082015260c0815261021760e0826109e0565b51902060405190868201927f19010000000000000000000000000000000000000000000000000000000000008452602283015260428201526042815261025e6062826109e0565b519020906040519182528482015260a435604082015260c435606082015282805260015afa156103585773ffffffffffffffffffffffffffffffffffffffff5f51168015158061034f575b156102f1577f8c5be1e5ebec7d5bd14f71427d1e84f3dd0314c0f7b2291e5b200ac8c7c3b925916020915f526004825260405f20855f5282528060405f2055604051908152a3005b60646040517f08c379a000000000000000000000000000000000000000000000000000000000815260206004820152600e60248201527f494e56414c49445f5349474e45520000000000000000000000000000000000006044820152fd5b508281146102a9565b6040513d5f823e3d90fd5b60646040517f08c379a000000000000000000000000000000000000000000000000000000000815260206004820152601760248201527f5045524d49545f444541444c494e455f455850495245440000000000000000006044820152fd5b5f60031936011261012e57610020610cae565b3461012e57604060031936011261012e576103ed610a96565b73ffffffffffffffffffffffffffffffffffffffff60243591335f52600360205260405f2061041d848254610adc565b90551690815f52600360205260405f208181540190556040519081527fddf252ad1be2c89b69c2b068fc378daa952ba7f163c4a11628f55a4df523b3ef60203392a3602060405160018152f35b3461012e575f60031936011261012e576040515f60015461048a8161098f565b808452906001811690811561052057506001146104c2575b6104be836104b2818503826109e0565b60405191829182610a4e565b0390f35b60015f9081527fb10e2d527612073b26eecdfd717e6a320cf44b4afac2b0732d9fcbe2b7fa0cf6939250905b808210610506575090915081016020016104b26104a2565b9192600181602092548385880101520191019092916104ee565b7fffffffffffffffffffffffffffffffffffffffffffffffffffffffffffffff001660208086019190915291151560051b840190910191506104b290506104a2565b3461012e57602060031936011261012e5773ffffffffffffffffffffffffffffffffffffffff610590610a96565b165f526005602052602060405f2054604051908152f35b3461012e57602060031936011261012e5773ffffffffffffffffffffffffffffffffffffffff6105d5610a96565b165f526003602052602060405f2054604051908152f35b3461012e575f60031936011261012e576020610606610b16565b604051908152f35b3461012e575f60031936011261012e57602060405160ff7f0000000000000000000000000000000000000000000000000000000000000000168152f35b3461012e57602060031936011261012e575f80808060043533825260036020526040822061067a828254610adc565b90558060025403600255816040518281527fddf252ad1be2c89b69c2b068fc378daa952ba7f163c4a11628f55a4df523b3ef60203392a36040518181527f7fcf532c15f0a6db0bd6d0e038bea71d30d808c7d98cb3bf7268a95bf5081b6560203392a2335af1156106e757005b60646040517f08c379a000000000000000000000000000000000000000000000000000000000815260206004820152601360248201527f4554485f5452414e534645525f4641494c4544000000000000000000000000006044820152fd5b3461012e57606060031936011261012e5761075e610a96565b610766610ab9565b7fddf252ad1be2c89b69c2b068fc378daa952ba7f163c4a11628f55a4df523b3ef602073ffffffffffffffffffffffffffffffffffffffff80604435951693845f526004835260405f208233165f52835260405f2054867fffffffffffffffffffffffffffffffffffffffffffffffffffffffffffffffff8203610824575b5050845f526003835260405f206107fd878254610adc565b90551693845f526003825260405f20818154019055604051908152a3602060405160018152f35b61082d91610adc565b855f526004845260405f208333165f52845260405f205586866107e5565b3461012e575f60031936011261012e576020600254604051908152f35b3461012e57604060031936011261012e57610881610a96565b73ffffffffffffffffffffffffffffffffffffffff60243591335f52600460205260405f208282165f526020528260405f205560405192835216907f8c5be1e5ebec7d5bd14f71427d1e84f3dd0314c0f7b2291e5b200ac8c7c3b92560203392a3602060405160018152f35b3461012e575f60031936011261012e576040515f5f5461090c8161098f565b80845290600181169081156105205750600114610933576104be836104b2818503826109e0565b5f8080527f290decd9548b62a8d60345a988386fc84ba6bc95484008f6362f93160ef3e563939250905b808210610975575090915081016020016104b26104a2565b91926001816020925483858801015201910190929161095d565b90600182811c921680156109d6575b60208310146109a957565b7f4e487b71000000000000000000000000000000000000000000000000000000005f52602260045260245ffd5b91607f169161099e565b90601f7fffffffffffffffffffffffffffffffffffffffffffffffffffffffffffffffe0910116810190811067ffffffffffffffff821117610a2157604052565b7f4e487b71000000000000000000000000000000000000000000000000000000005f52604160045260245ffd5b7fffffffffffffffffffffffffffffffffffffffffffffffffffffffffffffffe0601f602060409481855280519182918282880152018686015e5f8582860101520116010190565b6004359073ffffffffffffffffffffffffffffffffffffffff8216820361012e57565b6024359073ffffffffffffffffffffffffffffffffffffffff8216820361012e57565b91908203918211610ae957565b7f4e487b71000000000000000000000000000000000000000000000000000000005f52601160045260245ffd5b467f000000000000000000000000000000000000000000000000000000000000000003610b61577f000000000000000000000000000000000000000000000000000000000000000090565b6040515f905f549181610b738461098f565b9182825260208201946001811690815f14610c745750600114610c17575b610b9d925003826109e0565b51902060405160208101917f8b73c3c69bb8fe3d512ecc4cf759cc79239f7b179b0ffacaa9a75d522b39400f835260408201527fc89efdaa54c0f20c7adf612882df0950f5a951637e0307cdcb4c672f298b8bc660608201524660808201523060a082015260a08152610c1160c0826109e0565b51902090565b505f80805290917f290decd9548b62a8d60345a988386fc84ba6bc95484008f6362f93160ef3e5635b818310610c58575050906020610b9d92820101610b91565b6020919350806001915483858801015201910190918392610c40565b7fffffffffffffffffffffffffffffffffffffffffffffffffffffffffffffff0016865250610b9d92151560051b82016020019050610b91565b600254348101809111610ae957600255335f52600360205260405f203481540190556040513481525f7fddf252ad1be2c89b69c2b068fc378daa952ba7f163c4a11628f55a4df523b3ef60203393a36040513481527fe1fffcc4923d04b559f4d29a8bfc6cda04eb5b0d3c460751c2402c5c5cc9109c60203392a256fea26469706673582212200b7371c1766090d643fe647521b236e1fafac20ff2b78a387e75825dc3665c3764736f6c63430008220033290decd9548b62a8d60345a988386fc84ba6bc95484008f6362f93160ef3e563","linkReferences":{}},"methodIdentifiers":{"DOMAIN_SEPARATOR()":"3644e515","allowance(address,address)":"dd62ed3e","approve(address,uint256)":"095ea7b3","balanceOf(address)":"70a08231","decimals()":"313ce567","deposit()":"d0e30db0","name()":"06fdde03","nonces(address)":"7ecebe00","permit(address,address,uint256,uint256,uint8,bytes32,bytes32)":"d505accf","symbol()":"95d89b41","totalSupply()":"18160ddd","transfer(address,uint256)":"a9059cbb","transferFrom(address,address,uint256)":"23b872dd","withdraw(uint256)":"2e1a7d4d"},"id":50}