{"abi":[{"type":"constructor","inputs":[{"name":"router_","type":"address","internalType":"address"},{"name":"positionManager_","type":"address","internalType":"address"}],"stateMutability":"nonpayable"},{"type":"receive","stateMutability":"payable"},{"type":"function","name":"addLiquidity","inputs":[{"name":"data","type":"bytes","internalType":"bytes"}],"outputs":[],"stateMutability":"nonpayable"},{"type":"function","name":"claimAMMFees","inputs":[{"name":"data","type":"bytes","internalType":"bytes"}],"outputs":[],"stateMutability":"nonpayable"},{"type":"function","name":"getLiquidity","inputs":[{"name":"data","type":"bytes","internalType":"bytes"}],"outputs":[{"name":"","type":"uint256","internalType":"uint256"}],"stateMutability":"view"},{"type":"function","name":"initialize","inputs":[{"name":"newOwner","type":"address","internalType":"address"}],"outputs":[],"stateMutability":"nonpayable"},{"type":"function","name":"owner","inputs":[],"outputs":[{"name":"","type":"address","internalType":"address"}],"stateMutability":"view"},{"type":"function","name":"positionManager","inputs":[],"outputs":[{"name":"","type":"address","internalType":"address"}],"stateMutability":"view"},{"type":"function","name":"removeLiquidity","inputs":[{"name":"data","type":"bytes","internalType":"bytes"}],"outputs":[],"stateMutability":"nonpayable"},{"type":"function","name":"renounceOwnership","inputs":[],"outputs":[],"stateMutability":"nonpayable"},{"type":"function","name":"router","inputs":[],"outputs":[{"name":"","type":"address","internalType":"address"}],"stateMutability":"view"},{"type":"function","name":"swap","inputs":[{"name":"data","type":"bytes","internalType":"bytes"}],"outputs":[],"stateMutability":"payable"},{"type":"function","name":"transferOwnership","inputs":[{"name":"newOwner","type":"address","internalType":"address"}],"outputs":[],"stateMutability":"nonpayable"},{"type":"event","name":"Initialized","inputs":[{"name":"version","type":"uint8","indexed":false,"internalType":"uint8"}],"anonymous":false},{"type":"event","name":"OwnershipTransferred","inputs":[{"name":"previousOwner","type":"address","indexed":true,"internalType":"address"},{"name":"newOwner","type":"address","indexed":true,"internalType":"address"}],"anonymous":false}],"bytecode":{"object":"0x60c0346100fc57601f611dc938819003918201601f19168301916001600160401b038311848410176101005780849260409485528339810103126100fc57610052602061004b83610114565b9201610114565b5f8054336001600160a01b0319821681178355604051949290916001600160a01b0316907f8be0079c531659141344cd1fd0a4f28419497f9722a3daafe3b4186f6b6457e09080a360805260a052611ca09081610129823960805181818160c301528181610e3a0152611045015260a051818181610557015281816107b60152818161080e015281816108db01528181610c5b01528181610cdd015281816110dd01526111ee0152f35b5f80fd5b634e487b7160e01b5f52604160045260245ffd5b51906001600160a01b03821682036100fc5756fe6080604052600436101561001a575b3615610018575f80fd5b005b5f3560e01c8063028318cf1461115557806337da372c14611070578063627dd56a14610d7d578063715018a614610d01578063791b98bc14610cb157806382c772bb14610b4f5780638bb2e1d6146103ce5780638da5cb5b1461039c578063c4d66de8146101b7578063f2fde38b146100eb5763f887ea400361000e57346100e7575f6003193601126100e757602060405173ffffffffffffffffffffffffffffffffffffffff7f0000000000000000000000000000000000000000000000000000000000000000168152f35b5f80fd5b346100e75760206003193601126100e75760043573ffffffffffffffffffffffffffffffffffffffff81168082036100e757610125611662565b156101335761001890611a07565b60846040517f08c379a000000000000000000000000000000000000000000000000000000000815260206004820152602660248201527f4f776e61626c653a206e6577206f776e657220697320746865207a65726f206160448201527f64647265737300000000000000000000000000000000000000000000000000006064820152fd5b346100e75760206003193601126100e75760043573ffffffffffffffffffffffffffffffffffffffff811681036100e7575f5460ff8160a81c16159182809361038c575b8015610372575b156102ee578183740100000000000000000000000000000000000000007fffffffffffffffffffffff00ffffffffffffffffffffffffffffffffffffffff6102539516175f556102ac575b50611a07565b61025957005b7fffffffffffffffffffff00ffffffffffffffffffffffffffffffffffffffffff5f54165f557f7f26b83ff96e1f2b6a682f133852f6798a09c465da95921460cefb3847402498602060405160018152a1005b7fffffffffffffffffffff0000ffffffffffffffffffffffffffffffffffffffff167501010000000000000000000000000000000000000000175f558361024d565b60846040517f08c379a000000000000000000000000000000000000000000000000000000000815260206004820152602e60248201527f496e697469616c697a61626c653a20636f6e747261637420697320616c72656160448201527f647920696e697469616c697a65640000000000000000000000000000000000006064820152fd5b50303b1580156102025750600160ff8360a01c1614610202565b50600160ff8360a01c16106101fb565b346100e7575f6003193601126100e757602073ffffffffffffffffffffffffffffffffffffffff5f5416604051908152f35b346100e7576103dc3661140d565b6103e4611662565b805181016040828203126100e7576103fe6020830161161b565b9160408101519167ffffffffffffffff83116100e757610425926020809201920101611592565b901561086757610160818051810103126100e75760405190610160820182811067ffffffffffffffff82111761083a57604052610464602082016114a8565b91828152610474604083016114a8565b9260208201938452610488606084016114c9565b916040810192835261049c608085016114d9565b93606082019485526104b060a082016114d9565b926080830193845260c08201519160a084019280845260e08201519560c086019687526101008301519060e0870191825261012084015192610100880193845273ffffffffffffffffffffffffffffffffffffffff61016061051561014088016114a8565b966101208b019788520151966101408a019788523087521690816107e1575b505073ffffffffffffffffffffffffffffffffffffffff8b511680610787575b507f000000000000000000000000000000000000000000000000000000000000000099604051997f88316456000000000000000000000000000000000000000000000000000000008b52885173ffffffffffffffffffffffffffffffffffffffff1660048c01528c5173ffffffffffffffffffffffffffffffffffffffff1660248c01525162ffffff1660448b01525160020b60648a01525160020b6084890152845160a4890152865160c48901525160e4880152516101048701525173ffffffffffffffffffffffffffffffffffffffff1661012486015251610144850152838073ffffffffffffffffffffffffffffffffffffffff87165a925f61016492608095f193841561077c5785915f915f9661072e575b5073ffffffffffffffffffffffffffffffffffffffff845116806106e9575b505050505073ffffffffffffffffffffffffffffffffffffffff845116806106ad57005b6106c0936106ba9161174e565b51611628565b806106c757005b73ffffffffffffffffffffffffffffffffffffffff61001892511633906119a8565b6106f6936106ba9161174e565b80610705575b80808692610689565b73ffffffffffffffffffffffffffffffffffffffff61072792511633906119a8565b84806106fc565b92509450506080813d608011610774575b8161074c60809383611392565b810103126100e757806107626020879301611475565b5060606040820151910151948861066a565b3d915061073f565b6040513d5f823e3d90fd5b885161079691309033906116e0565b6107db73ffffffffffffffffffffffffffffffffffffffff8c51168951907f0000000000000000000000000000000000000000000000000000000000000000906117ad565b8b610554565b6107ee91309033906116e0565b61083373ffffffffffffffffffffffffffffffffffffffff8851168751907f0000000000000000000000000000000000000000000000000000000000000000906117ad565b8b80610534565b7f4e487b71000000000000000000000000000000000000000000000000000000005f52604160045260245ffd5b60c0818051810103126100e7576040519060c0820182811067ffffffffffffffff82111761083a576040526020810151808352604082015192602081019384526060830151936040820194855260808401516060830190815260c060a0860151956080850196875201519160a084019283527f00000000000000000000000000000000000000000000000000000000000000009573ffffffffffffffffffffffffffffffffffffffff871692604051967f99fbab88000000000000000000000000000000000000000000000000000000008852600488015261018087602481875afa90811561077c57838a978a99978a985f905f96610afc575b5073ffffffffffffffffffffffffffffffffffffffff169788918215159c60609760c4968f9573ffffffffffffffffffffffffffffffffffffffff935f97610adc575b505050169e8f8015159c8d610abc575b50505060405197889687957f219f5d170000000000000000000000000000000000000000000000000000000087525160048701528a5160248701528d5160448701525160648601525160848501525160a48401525af195861561077c575f915f97610a74575b50610a48575b505050610a2957005b6106ba610a36938561174e565b80610a3d57005b6100189133906119a8565b610a56916106ba888561174e565b80610a62575b80610a20565b610a6d9133906119a8565b8580610a5c565b915095506060813d606011610ab4575b81610a9160609383611392565b810103126100e757610aa281611475565b50604060208201519101519589610a1a565b3d9150610a84565b82610acd610ad494513033866116e0565b51916117ad565b8b8f8f6109b4565b610aec610af493513033856116e0565b8d51916117ad565b8a8c8e6109a4565b73ffffffffffffffffffffffffffffffffffffffff9650610b3591506101803d8111610b48575b610b2d8183611392565b8101906114e7565b5050505050505050979250905090610961565b503d610b23565b346100e757610b5d3661140d565b610b65611662565b6080818051810103126100e75760408051610c4192610b8382611376565b60208101518252610bb86080610b9a8584016114a8565b9260208501938452610bae60608201611475565b8686015201611475565b60608301523390528151809381927ffc6f78650000000000000000000000000000000000000000000000000000000083526004830191909160606fffffffffffffffffffffffffffffffff8160808401958051855273ffffffffffffffffffffffffffffffffffffffff6020820151166020860152826040820151166040860152015116910152565b03815f73ffffffffffffffffffffffffffffffffffffffff7f0000000000000000000000000000000000000000000000000000000000000000165af1801561077c57610c8957005b6100189060403d604011610caa575b610ca28183611392565b810190611492565b503d610c98565b346100e7575f6003193601126100e757602060405173ffffffffffffffffffffffffffffffffffffffff7f0000000000000000000000000000000000000000000000000000000000000000168152f35b346100e7575f6003193601126100e757610d19611662565b5f73ffffffffffffffffffffffffffffffffffffffff81547fffffffffffffffffffffffff000000000000000000000000000000000000000081168355167f8be0079c531659141344cd1fd0a4f28419497f9722a3daafe3b4186f6b6457e08280a3005b610d863661140d565b610d8e611662565b805181019060a0818303126100e757610da9602082016114a8565b91604082015190610dbc606084016114a8565b9160808401519160a085015167ffffffffffffffff81116100e75773ffffffffffffffffffffffffffffffffffffffff80610e0481986020610e9d9581809801920101611592565b981695169660405190610e1682611376565b81528281013081526040820195858752606083019081528715159586611033575b507f000000000000000000000000000000000000000000000000000000000000000096604051998a9586957fb858183f000000000000000000000000000000000000000000000000000000008752886004880152516080602488015260a48701906115d8565b935116604485015251606484015251608483015203813473ffffffffffffffffffffffffffffffffffffffff87165af193841561077c575f94610fff575b50610fef575b505047610ef0575b81610a3d57005b47804710610f91575f80808093335af1610f08611979565b50610ee95760846040517f08c379a000000000000000000000000000000000000000000000000000000000815260206004820152603a60248201527f416464726573733a20756e61626c6520746f2073656e642076616c75652c207260448201527f6563697069656e74206d617920686176652072657665727465640000000000006064820152fd5b60646040517f08c379a000000000000000000000000000000000000000000000000000000000815260206004820152601d60248201527f416464726573733a20696e73756666696369656e742062616c616e63650000006044820152fd5b610ff89161174e565b8280610ee1565b9093506020813d60201161102b575b8161101b60209383611392565b810103126100e757519285610edb565b3d915061100e565b8061104361106a9230338d6116e0565b7f00000000000000000000000000000000000000000000000000000000000000008a6117ad565b8a610e37565b346100e75761107e3661140d565b602081519181808201938492010103126100e75751604051907f99fbab8800000000000000000000000000000000000000000000000000000000825260048201526101808160248173ffffffffffffffffffffffffffffffffffffffff7f0000000000000000000000000000000000000000000000000000000000000000165afa801561077c576020915f9161112a575b506fffffffffffffffffffffffffffffffff60405191168152f35b61114391506101803d8111610b4857610b2d8183611392565b5050505096505050505050508261110f565b346100e7576111633661140d565b61116b611662565b60a0818051810103126100e7576040519060a0820182811067ffffffffffffffff82111761083a57604052602081015182526111a960408201611475565b90602083019182526060810151906040840191825260a0608082015191606086019283520151906080850191825273ffffffffffffffffffffffffffffffffffffffff7f000000000000000000000000000000000000000000000000000000000000000016926fffffffffffffffffffffffffffffffff604051957f0c49ccbe000000000000000000000000000000000000000000000000000000008752875160048801525116602486015251604485015251606484015251608483015260408260a4815f855af190811561077c575f9360409361134a9361135a575b505183519061129482611376565b81523360208201526fffffffffffffffffffffffffffffffff848201526fffffffffffffffffffffffffffffffff606082015283519485809481937ffc6f78650000000000000000000000000000000000000000000000000000000083526004830191909160606fffffffffffffffffffffffffffffffff8160808401958051855273ffffffffffffffffffffffffffffffffffffffff6020820151166020860152826040820151166040860152015116910152565b03925af1801561077c57610c8957005b61137090853d8711610caa57610ca28183611392565b50611286565b6080810190811067ffffffffffffffff82111761083a57604052565b90601f7fffffffffffffffffffffffffffffffffffffffffffffffffffffffffffffffe0910116810190811067ffffffffffffffff82111761083a57604052565b67ffffffffffffffff811161083a57601f017fffffffffffffffffffffffffffffffffffffffffffffffffffffffffffffffe01660200190565b60206003198201126100e75760043567ffffffffffffffff81116100e757816023820112156100e757806004013590611445826113d3565b926114536040519485611392565b828452602483830101116100e757815f92602460209301838601378301015290565b51906fffffffffffffffffffffffffffffffff821682036100e757565b91908260409103126100e7576020825192015190565b519073ffffffffffffffffffffffffffffffffffffffff821682036100e757565b519062ffffff821682036100e757565b51908160020b82036100e757565b9190826101809103126100e75781516bffffffffffffffffffffffff811681036100e75791611518602082016114a8565b91611525604083016114a8565b91611532606082016114a8565b9161153f608083016114c9565b9161154c60a082016114d9565b9161155960c083016114d9565b9161156660e08201611475565b91610100820151916101208101519161158f6101606115886101408501611475565b9301611475565b90565b81601f820112156100e7578051906115a9826113d3565b926115b76040519485611392565b828452602083830101116100e757815f9260208093018386015e8301015290565b907fffffffffffffffffffffffffffffffffffffffffffffffffffffffffffffffe0601f602080948051918291828752018686015e5f8582860101520116010190565b519081151582036100e757565b9190820391821161163557565b7f4e487b71000000000000000000000000000000000000000000000000000000005f52601160045260245ffd5b73ffffffffffffffffffffffffffffffffffffffff5f5416330361168257565b60646040517f08c379a000000000000000000000000000000000000000000000000000000000815260206004820152602060248201527f4f776e61626c653a2063616c6c6572206973206e6f7420746865206f776e65726044820152fd5b90919273ffffffffffffffffffffffffffffffffffffffff61174c9481604051957f23b872dd000000000000000000000000000000000000000000000000000000006020880152166024860152166044840152606483015260648252611747608483611392565b611a70565b565b9061174c9173ffffffffffffffffffffffffffffffffffffffff604051927f095ea7b30000000000000000000000000000000000000000000000000000000060208501521660248301525f604483015260448252611747606483611392565b919091811580156118ca575b15611846576040517f095ea7b300000000000000000000000000000000000000000000000000000000602082015273ffffffffffffffffffffffffffffffffffffffff9093166024840152604483019190915261174c919061174782606481015b037fffffffffffffffffffffffffffffffffffffffffffffffffffffffffffffffe08101845283611392565b60846040517f08c379a000000000000000000000000000000000000000000000000000000000815260206004820152603660248201527f5361666545524332303a20617070726f76652066726f6d206e6f6e2d7a65726f60448201527f20746f206e6f6e2d7a65726f20616c6c6f77616e6365000000000000000000006064820152fd5b506040517fdd62ed3e00000000000000000000000000000000000000000000000000000000815230600482015273ffffffffffffffffffffffffffffffffffffffff8416602482015260208160448173ffffffffffffffffffffffffffffffffffffffff86165afa90811561077c575f91611947575b50156117b9565b90506020813d602011611971575b8161196260209383611392565b810103126100e757515f611940565b3d9150611955565b3d156119a3573d9061198a826113d3565b916119986040519384611392565b82523d5f602084013e565b606090565b6040517fa9059cbb00000000000000000000000000000000000000000000000000000000602082015273ffffffffffffffffffffffffffffffffffffffff9092166024830152604482019290925261174c91611747826064810161181a565b73ffffffffffffffffffffffffffffffffffffffff805f54921691827fffffffffffffffffffffffff00000000000000000000000000000000000000008216175f55167f8be0079c531659141344cd1fd0a4f28419497f9722a3daafe3b4186f6b6457e05f80a3565b9073ffffffffffffffffffffffffffffffffffffffff611ade92165f8060405193611a9c604086611392565b602085527f5361666545524332303a206c6f772d6c6576656c2063616c6c206661696c6564602086015260208151910182855af1611ad8611979565b91611b9a565b8051908115918215611b78575b505015611af457565b60846040517f08c379a000000000000000000000000000000000000000000000000000000000815260206004820152602a60248201527f5361666545524332303a204552433230206f7065726174696f6e20646964206e60448201527f6f742073756363656564000000000000000000000000000000000000000000006064820152fd5b81925090602091810103126100e7576020611b93910161161b565b5f80611aeb565b91929015611c155750815115611bae575090565b3b15611bb75790565b60646040517f08c379a000000000000000000000000000000000000000000000000000000000815260206004820152601d60248201527f416464726573733a2063616c6c20746f206e6f6e2d636f6e74726163740000006044820152fd5b825190915015611c285750805190602001fd5b611c66906040519182917f08c379a00000000000000000000000000000000000000000000000000000000083526020600484015260248301906115d8565b0390fdfea2646970667358221220f3bfcd71d29b0b0795a36b559bb72a747a39e09b06ab8cb5925a6bca0c5a4e8264736f6c63430008220033","linkReferences":{}},"methodIdentifiers":{"addLiquidity(bytes)":"8bb2e1d6","claimAMMFees(bytes)":"82c772bb","getLiquidity(bytes)":"37da372c","initialize(address)":"c4d66de8","owner()":"8da5cb5b","positionManager()":"791b98bc","removeLiquidity(bytes)":"028318cf","renounceOwnership()":"715018a6","router()":"f887ea40","swap(bytes)":"627dd56a","transferOwnership(address)":"f2fde38b"},"id":69}