{"abi":[{"type":"constructor","inputs":[{"name":"stETH_","type":"address","internalType":"address"},{"name":"unstETH_","type":"address","internalType":"address"},{"name":"weth_","type":"address","internalType":"address"}],"stateMutability":"nonpayable"},{"type":"receive","stateMutability":"payable"},{"type":"function","name":"claimUnstaked","inputs":[{"name":"requestIds","type":"uint256[]","internalType":"uint256[]"}],"outputs":[],"stateMutability":"nonpayable"},{"type":"function","name":"getStakedBalance","inputs":[{"name":"asset","type":"address","internalType":"address"}],"outputs":[{"name":"","type":"uint256","internalType":"uint256"}],"stateMutability":"view"},{"type":"function","name":"getUnstakeRequestIds","inputs":[],"outputs":[{"name":"","type":"uint256[]","internalType":"uint256[]"}],"stateMutability":"view"},{"type":"function","name":"initialize","inputs":[{"name":"newOwner","type":"address","internalType":"address"}],"outputs":[],"stateMutability":"nonpayable"},{"type":"function","name":"owner","inputs":[],"outputs":[{"name":"","type":"address","internalType":"address"}],"stateMutability":"view"},{"type":"function","name":"renounceOwnership","inputs":[],"outputs":[],"stateMutability":"nonpayable"},{"type":"function","name":"stETH","inputs":[],"outputs":[{"name":"","type":"address","internalType":"contract IStETH"}],"stateMutability":"view"},{"type":"function","name":"stake","inputs":[{"name":"asset","type":"address","internalType":"address"},{"name":"amount","type":"uint256","internalType":"uint256"}],"outputs":[],"stateMutability":"payable"},{"type":"function","name":"transferOwnership","inputs":[{"name":"newOwner","type":"address","internalType":"address"}],"outputs":[],"stateMutability":"nonpayable"},{"type":"function","name":"unstETH","inputs":[],"outputs":[{"name":"","type":"address","internalType":"contract IUnstETH"}],"stateMutability":"view"},{"type":"function","name":"unstake","inputs":[{"name":"asset","type":"address","internalType":"address"},{"name":"amount","type":"uint256","internalType":"uint256"}],"outputs":[],"stateMutability":"nonpayable"},{"type":"function","name":"weth","inputs":[],"outputs":[{"name":"","type":"address","internalType":"contract WETH"}],"stateMutability":"view"},{"type":"event","name":"Initialized","inputs":[{"name":"version","type":"uint8","indexed":false,"internalType":"uint8"}],"anonymous":false},{"type":"event","name":"OwnershipTransferred","inputs":[{"name":"previousOwner","type":"address","indexed":true,"internalType":"address"},{"name":"newOwner","type":"address","indexed":true,"internalType":"address"}],"anonymous":false},{"type":"error","name":"InvalidAsset","inputs":[]},{"type":"error","name":"UnstakeMoreThanStaked","inputs":[]},{"type":"error","name":"WETHBalanceNotEnough","inputs":[]}],"bytecode":{"object":"0x60e03461012957601f611a7638819003918201601f19168301916001600160401b0383118484101761012d578084926060946040528339810103126101295761004781610141565b90610060604061005960208401610141565b9201610141565b5f8054336001600160a01b0319821681178355604051959394939290916001600160a01b0316907f8be0079c531659141344cd1fd0a4f28419497f9722a3daafe3b4186f6b6457e09080a36001600160a01b0390811660805290811660a0521660c052611920908161015682396080518181816103c2015281816109b701528181610b7101526112eb015260a05181818161049801528181610e0701526111d9015260c05181818161038401528181610a13015281816110de01528181611229015261127e0152f35b5f80fd5b634e487b7160e01b5f52604160045260245ffd5b51906001600160a01b03821682036101295756fe608080604052600436101561001c575b50361561001a575f80fd5b005b5f3560e01c9081633a02a42d1461124d575080633fc8cef3146111fd5780634ac6ab11146111ad5780634da833ff14610d6e578063715018a614610cf257806380a0733d14610c665780638da5cb5b14610c34578063adc9772e146109db578063c1fe3e481461098b578063c2a672e014610347578063c4d66de81461017a5763f2fde38b146100ac575f61000f565b34610176576020600319360112610176576100c5611358565b6100cd611453565b73ffffffffffffffffffffffffffffffffffffffff8116156100f25761001a906114d1565b60846040517f08c379a000000000000000000000000000000000000000000000000000000000815260206004820152602660248201527f4f776e61626c653a206e6577206f776e657220697320746865207a65726f206160448201527f64647265737300000000000000000000000000000000000000000000000000006064820152fd5b5f80fd5b3461017657602060031936011261017657610193611358565b5f5460ff8160a81c161591828093610337575b801561031d575b15610299578183740100000000000000000000000000000000000000007fffffffffffffffffffffff00ffffffffffffffffffffffffffffffffffffffff6101fe9516175f55610257575b506114d1565b61020457005b7fffffffffffffffffffff00ffffffffffffffffffffffffffffffffffffffffff5f54165f557f7f26b83ff96e1f2b6a682f133852f6798a09c465da95921460cefb3847402498602060405160018152a1005b7fffffffffffffffffffff0000ffffffffffffffffffffffffffffffffffffffff167501010000000000000000000000000000000000000000175f55836101f8565b60846040517f08c379a000000000000000000000000000000000000000000000000000000000815260206004820152602e60248201527f496e697469616c697a61626c653a20636f6e747261637420697320616c72656160448201527f647920696e697469616c697a65640000000000000000000000000000000000006064820152fd5b50303b1580156101ad5750600160ff8360a01c16146101ad565b50600160ff8360a01c16106101a6565b3461017657604060031936011261017657610360611358565b6024359061036c611453565b73ffffffffffffffffffffffffffffffffffffffff807f0000000000000000000000000000000000000000000000000000000000000000169116036109635773ffffffffffffffffffffffffffffffffffffffff7f0000000000000000000000000000000000000000000000000000000000000000166040517f70a08231000000000000000000000000000000000000000000000000000000008152306004820152602081602481855afa80156109585783915f91610923575b50106108fb5760409182519161043c848461137b565b60018352601f19840136602085013781610455846113f8565b5283517fdd62ed3e00000000000000000000000000000000000000000000000000000000815230600482015273ffffffffffffffffffffffffffffffffffffffff7f0000000000000000000000000000000000000000000000000000000000000000166024820181905292602082604481865afa9182156107b6575f926108c7575b50810180911161089a5784517f095ea7b300000000000000000000000000000000000000000000000000000000602082015273ffffffffffffffffffffffffffffffffffffffff84166024820152604480820192909252908152610585935f9161054c9061054660648261137b565b84611642565b8551809581927fd668104200000000000000000000000000000000000000000000000000000000835288600484015260448301906113b6565b306024830152038183865af1928315610890575f936107fe575b5083517fdd62ed3e00000000000000000000000000000000000000000000000000000000815230600482015273ffffffffffffffffffffffffffffffffffffffff8316602482015291602083604481855afa9283156107f4575f936107c0575b5082610618575b61001a610612856113f8565b516117a9565b84517fdd62ed3e00000000000000000000000000000000000000000000000000000000815230600482015273ffffffffffffffffffffffffffffffffffffffff8216602482015290602082604481865afa9182156107b6575f92610782575b508382106106ff5794517f095ea7b300000000000000000000000000000000000000000000000000000000602082015273ffffffffffffffffffffffffffffffffffffffff909516602486015291909103604484015261001a9261061292916106f791906106f282606481015b03601f19810184528361137b565b611642565b908380610606565b608486517f08c379a000000000000000000000000000000000000000000000000000000000815260206004820152602960248201527f5361666545524332303a2064656372656173656420616c6c6f77616e6365206260448201527f656c6f77207a65726f00000000000000000000000000000000000000000000006064820152fd5b9091506020813d6020116107ae575b8161079e6020938361137b565b8101031261017657519086610677565b3d9150610791565b86513d5f823e3d90fd5b9092506020813d6020116107ec575b816107dc6020938361137b565b81010312610176575191856105ff565b3d91506107cf565b85513d5f823e3d90fd5b9092503d805f833e610810818361137b565b8101906020818303126101765780519067ffffffffffffffff821161017657019080601f830112156101765781516108478161139e565b926108548751948561137b565b81845260208085019260051b82010192831161017657602001905b82821061088057505050918461059f565b815181526020918201910161086f565b84513d5f823e3d90fd5b7f4e487b71000000000000000000000000000000000000000000000000000000005f52601160045260245ffd5b9091506020813d6020116108f3575b816108e36020938361137b565b81010312610176575190866104d7565b3d91506108d6565b7f8b6083c7000000000000000000000000000000000000000000000000000000005f5260045ffd5b9150506020813d602011610950575b8161093f6020938361137b565b810103126101765782905184610426565b3d9150610932565b6040513d5f823e3d90fd5b7fc891add2000000000000000000000000000000000000000000000000000000005f5260045ffd5b34610176575f60031936011261017657602060405173ffffffffffffffffffffffffffffffffffffffff7f0000000000000000000000000000000000000000000000000000000000000000168152f35b60406003193601126101765773ffffffffffffffffffffffffffffffffffffffff610a04611358565b60243590610a10611453565b827f0000000000000000000000000000000000000000000000000000000000000000169283911603610963576040517f70a08231000000000000000000000000000000000000000000000000000000008152336004820152602081602481865afa80156109585782915f91610bff575b5010610bd757610ad96040517f23b872dd00000000000000000000000000000000000000000000000000000000602082015233602482015230604482015282606482015260648152610ad360848261137b565b83611642565b813b15610176575f80926024604051809581937f2e1a7d4d0000000000000000000000000000000000000000000000000000000083528660048401525af190811561095857602492602092610bc7575b50604051928380927fa1903eab00000000000000000000000000000000000000000000000000000000825230600483015273ffffffffffffffffffffffffffffffffffffffff7f0000000000000000000000000000000000000000000000000000000000000000165af1801561095857610b9f57005b61001a9060203d602011610bc0575b610bb8818361137b565b8101906113e9565b503d610bae565b5f610bd19161137b565b83610b29565b7f0c8c6b50000000000000000000000000000000000000000000000000000000005f5260045ffd5b9150506020813d602011610c2c575b81610c1b6020938361137b565b810103126101765781905184610a80565b3d9150610c0e565b34610176575f60031936011261017657602073ffffffffffffffffffffffffffffffffffffffff5f5416604051908152f35b34610176575f6003193601126101765760405180602060015491828152019060015f527fb10e2d527612073b26eecdfd717e6a320cf44b4afac2b0732d9fcbe2b7fa0cf6905f5b818110610cdc57610cd885610cc48187038261137b565b6040519182916020835260208301906113b6565b0390f35b8254845260209093019260019283019201610cad565b34610176575f60031936011261017657610d0a611453565b5f73ffffffffffffffffffffffffffffffffffffffff81547fffffffffffffffffffffffff000000000000000000000000000000000000000081168355167f8be0079c531659141344cd1fd0a4f28419497f9722a3daafe3b4186f6b6457e08280a3005b346101765760206003193601126101765760043567ffffffffffffffff8111610176573660238201121561017657806004013590610dab8261139e565b91610db9604051938461137b565b8083526024602084019160051b8301019136831161017657602401905b82821061119d5783610de6611453565b60408051610df4828261137b565b60018152601f19820136602083013747917f000000000000000000000000000000000000000000000000000000000000000073ffffffffffffffffffffffffffffffffffffffff16915f5b85518110156110b157610e528187611432565b51610e5c836113f8565b5282517fb8c4b85a000000000000000000000000000000000000000000000000000000008152602060048201525f8180610e9960248201876113b6565b0381885afa908115610890575f91610f6b575b506080610eb8826113f8565b51015115159081610f54575b50610ed2575b600101610e3f565b610edc8187611432565b51843b15610176578351907ff844443600000000000000000000000000000000000000000000000000000000825260048201525f8160248183895af18015610890579060019291610f44575b50610f3c610f368289611432565b5161154f565b509050610eca565b5f610f4e9161137b565b87610f28565b60a09150610f61906113f8565b5101511587610ec4565b90503d805f833e610f7c818361137b565b8101906020818303126101765780519067ffffffffffffffff8211610176570181601f8201121561017657805190610fb38261139e565b92610fc08751948561137b565b828452602060c081860194028301019181831161017657602001925b828410610fed575050505087610eac565b60c0848303126101765787519060c0820182811067ffffffffffffffff8211176110845789528451825260208501516020830152888501519073ffffffffffffffffffffffffffffffffffffffff8216820361017657826020928b60c09501526060870151606082015261106360808801611446565b608082015261107460a08801611446565b60a0820152815201930192610fdc565b7f4e487b71000000000000000000000000000000000000000000000000000000005f52604160045260245ffd5b828547908082039180831161089a57036110c757005b73ffffffffffffffffffffffffffffffffffffffff7f00000000000000000000000000000000000000000000000000000000000000001690813b156101765782517fd0e30db00000000000000000000000000000000000000000000000000000000081525f8160048185875af18015610890579161001a946106f2926106e4959461118d575b50517fa9059cbb00000000000000000000000000000000000000000000000000000000602082015233602482015260448101919091529283906064820190565b5f6111979161137b565b8661114d565b8135815260209182019101610dd6565b34610176575f60031936011261017657602060405173ffffffffffffffffffffffffffffffffffffffff7f0000000000000000000000000000000000000000000000000000000000000000168152f35b34610176575f60031936011261017657602060405173ffffffffffffffffffffffffffffffffffffffff7f0000000000000000000000000000000000000000000000000000000000000000168152f35b3461017657602060031936011261017657611266611358565b73ffffffffffffffffffffffffffffffffffffffff807f000000000000000000000000000000000000000000000000000000000000000016911603610963577f70a0823100000000000000000000000000000000000000000000000000000000815230600482015260208160248173ffffffffffffffffffffffffffffffffffffffff7f0000000000000000000000000000000000000000000000000000000000000000165afa8015610958575f90611325575b602090604051908152f35b506020813d602011611350575b8161133f6020938361137b565b81010312610176576020905161131a565b3d9150611332565b6004359073ffffffffffffffffffffffffffffffffffffffff8216820361017657565b90601f601f19910116810190811067ffffffffffffffff82111761108457604052565b67ffffffffffffffff81116110845760051b60200190565b90602080835192838152019201905f5b8181106113d35750505090565b82518452602093840193909201916001016113c6565b90816020910312610176575190565b8051156114055760200190565b7f4e487b71000000000000000000000000000000000000000000000000000000005f52603260045260245ffd5b80518210156114055760209160051b010190565b5190811515820361017657565b73ffffffffffffffffffffffffffffffffffffffff5f5416330361147357565b60646040517f08c379a000000000000000000000000000000000000000000000000000000000815260206004820152602060248201527f4f776e61626c653a2063616c6c6572206973206e6f7420746865206f776e65726044820152fd5b73ffffffffffffffffffffffffffffffffffffffff805f54921691827fffffffffffffffffffffffff00000000000000000000000000000000000000008216175f55167f8be0079c531659141344cd1fd0a4f28419497f9722a3daafe3b4186f6b6457e05f80a3565b8054821015611405575f5260205f2001905f90565b5f81815260026020526040902054801561163c575f19810181811161089a57600154905f19820191821161089a578082036115ee575b50505060015480156115c1575f190161159f81600161153a565b5f1982549160031b1b191690556001555f5260026020525f6040812055600190565b7f4e487b71000000000000000000000000000000000000000000000000000000005f52603160045260245ffd5b6116266115ff61161093600161153a565b90549060031b1c928392600161153a565b81939154905f199060031b92831b921b19161790565b90555f52600260205260405f20555f8080611585565b50505f90565b73ffffffffffffffffffffffffffffffffffffffff16905f806040519261166a60408561137b565b602084527f5361666545524332303a206c6f772d6c6576656c2063616c6c206661696c6564602085015260208151910182865af13d1561179c573d9067ffffffffffffffff8211611084576116e0936020601f19601f85011601926116d2604051948561137b565b83523d5f602085013e611803565b805190811591821561177a575b5050156116f657565b60846040517f08c379a000000000000000000000000000000000000000000000000000000000815260206004820152602a60248201527f5361666545524332303a204552433230206f7065726174696f6e20646964206e60448201527f6f742073756363656564000000000000000000000000000000000000000000006064820152fd5b81925090602091810103126101765760206117959101611446565b5f806116ed565b916116e092606091611803565b805f52600260205260405f2054155f146117fe5760015468010000000000000000811015611084576117e7611610826001859401600155600161153a565b9055600154905f52600260205260405f2055600190565b505f90565b9192901561187e5750815115611817575090565b3b156118205790565b60646040517f08c379a000000000000000000000000000000000000000000000000000000000815260206004820152601d60248201527f416464726573733a2063616c6c20746f206e6f6e2d636f6e74726163740000006044820152fd5b8251909150156118915750805190602001fd5b6044602091601f19601f6040519485937f08c379a00000000000000000000000000000000000000000000000000000000085528160048601528051918291826024880152018686015e5f85828601015201168101030190fdfea2646970667358221220569c4d401b7dceb62f86c50236c4d7a276cb791b2498e86c4060c267ff1d986764736f6c63430008220033","linkReferences":{}},"methodIdentifiers":{"claimUnstaked(uint256[])":"4da833ff","getStakedBalance(address)":"3a02a42d","getUnstakeRequestIds()":"80a0733d","initialize(address)":"c4d66de8","owner()":"8da5cb5b","renounceOwnership()":"715018a6","stETH()":"c1fe3e48","stake(address,uint256)":"adc9772e","transferOwnership(address)":"f2fde38b","unstETH()":"4ac6ab11","unstake(address,uint256)":"c2a672e0","weth()":"3fc8cef3"},"id":68}