{"abi":[{"type":"function","name":"POOLS_SLOT","inputs":[],"outputs":[{"name":"","type":"bytes32","internalType":"bytes32"}],"stateMutability":"view"}],"bytecode":{"object":"0x60808060405234601757608e9081601c823930815050f35b5f80fdfe60808060405260043610156011575f80fd5b5f3560e01c6357eb1da7146023575f80fd5b5f7ffffffffffffffffffffffffffffffffffffffffffffffffffffffffffffffffc36011260545780600660209252f35b5f80fdfea2646970667358221220cbbc6ea7c7d8d255350980c185ca77bd4b59fbe42a8ada694b9ae6671ee902a164736f6c63430008220033","linkReferences":{}},"methodIdentifiers":{"POOLS_SLOT()":"57eb1da7"},"id":64}