{"abi":[{"type":"constructor","inputs":[{"name":"reactor_","type":"address","internalType":"address"},{"name":"permit2_","type":"address","internalType":"address"}],"stateMutability":"nonpayable"},{"type":"receive","stateMutability":"payable"},{"type":"function","name":"approveHash","inputs":[{"name":"hash","type":"bytes32","internalType":"bytes32"}],"outputs":[],"stateMutability":"nonpayable"},{"type":"function","name":"approvedHashes","inputs":[{"name":"","type":"address","internalType":"address"},{"name":"","type":"bytes32","internalType":"bytes32"}],"outputs":[{"name":"","type":"bool","internalType":"bool"}],"stateMutability":"view"},{"type":"function","name":"cancelTrade","inputs":[{"name":"data","type":"bytes","internalType":"bytes"}],"outputs":[],"stateMutability":"nonpayable"},{"type":"function","name":"cleanExpiredOrders","inputs":[{"name":"hashes","type":"bytes32[]","internalType":"bytes32[]"}],"outputs":[],"stateMutability":"nonpayable"},{"type":"function","name":"initialize","inputs":[{"name":"newOwner","type":"address","internalType":"address"}],"outputs":[],"stateMutability":"nonpayable"},{"type":"function","name":"isValidSignature","inputs":[{"name":"hash","type":"bytes32","internalType":"bytes32"},{"name":"","type":"bytes","internalType":"bytes"}],"outputs":[{"name":"","type":"bytes4","internalType":"bytes4"}],"stateMutability":"view"},{"type":"function","name":"owner","inputs":[],"outputs":[{"name":"","type":"address","internalType":"address"}],"stateMutability":"view"},{"type":"function","name":"permit2","inputs":[],"outputs":[{"name":"","type":"address","internalType":"address"}],"stateMutability":"view"},{"type":"function","name":"reactor","inputs":[],"outputs":[{"name":"","type":"address","internalType":"address"}],"stateMutability":"view"},{"type":"function","name":"renounceOwnership","inputs":[],"outputs":[],"stateMutability":"nonpayable"},{"type":"function","name":"revokeApprovals","inputs":[{"name":"tokens","type":"address[]","internalType":"address[]"}],"outputs":[],"stateMutability":"nonpayable"},{"type":"function","name":"revokeHash","inputs":[{"name":"hash","type":"bytes32","internalType":"bytes32"}],"outputs":[],"stateMutability":"nonpayable"},{"type":"function","name":"trade","inputs":[{"name":"data","type":"bytes","internalType":"bytes"}],"outputs":[],"stateMutability":"nonpayable"},{"type":"function","name":"transferOwnership","inputs":[{"name":"newOwner","type":"address","internalType":"address"}],"outputs":[],"stateMutability":"nonpayable"},{"type":"event","name":"CancelTrade","inputs":[{"name":"data","type":"bytes","indexed":false,"internalType":"bytes"},{"name":"sender","type":"address","indexed":true,"internalType":"address"},{"name":"provider","type":"address","indexed":true,"internalType":"address"}],"anonymous":false},{"type":"event","name":"Initialized","inputs":[{"name":"version","type":"uint8","indexed":false,"internalType":"uint8"}],"anonymous":false},{"type":"event","name":"OwnershipTransferred","inputs":[{"name":"previousOwner","type":"address","indexed":true,"internalType":"address"},{"name":"newOwner","type":"address","indexed":true,"internalType":"address"}],"anonymous":false},{"type":"event","name":"Trade","inputs":[{"name":"data","type":"bytes","indexed":false,"internalType":"bytes"},{"name":"sender","type":"address","indexed":true,"internalType":"address"},{"name":"provider","type":"address","indexed":true,"internalType":"address"}],"anonymous":false},{"type":"error","name":"OrderNotExpired","inputs":[]}],"bytecode":{"object":"0x60c0346100da57601f611d1038819003918201601f19168301916001600160401b038311848410176100de5780849260409485528339810103126100da57610052602061004b836100f2565b92016100f2565b5f8054336001600160a01b0319821681178355604051949290916001600160a01b0316907f8be0079c531659141344cd1fd0a4f28419497f9722a3daafe3b4186f6b6457e09080a360805260a052611c0990816101078239608051816103f4015260a0518181816105270152818161096601528181610c1b01528181610ede01526111260152f35b5f80fd5b634e487b7160e01b5f52604160045260245ffd5b51906001600160a01b03821682036100da5756fe6080604052600436101561001a575b3615610018575f80fd5b005b5f3560e01c80631037ea5114610f0257806312261ee714610eb25780631626ba7e14610e495780632d8fca7314610aeb5780636cf0859c1461092a57806370de43f1146108b8578063715018a61461083c5780637d832974146107e65780638da5cb5b146107b4578063a04d662a14610418578063ab572650146103c8578063c4d66de8146101fb578063d4d9bdcd146101865763f2fde38b0361000e5734610182576020600319360112610182576100d1611368565b6100d96114ca565b73ffffffffffffffffffffffffffffffffffffffff8116156100fe576100189061194d565b60846040517f08c379a000000000000000000000000000000000000000000000000000000000815260206004820152602660248201527f4f776e61626c653a206e6577206f776e657220697320746865207a65726f206160448201527f64647265737300000000000000000000000000000000000000000000000000006064820152fd5b5f80fd5b346101825760206003193601126101825761019f6114ca565b73ffffffffffffffffffffffffffffffffffffffff5f54165f52600160205260405f206004355f5260205260405f2060017fffffffffffffffffffffffffffffffffffffffffffffffffffffffffffffff008254161790555f80f35b3461018257602060031936011261018257610214611368565b5f5460ff8160a81c1615918280936103b8575b801561039e575b1561031a578183740100000000000000000000000000000000000000007fffffffffffffffffffffff00ffffffffffffffffffffffffffffffffffffffff61027f9516175f556102d8575b5061194d565b61028557005b7fffffffffffffffffffff00ffffffffffffffffffffffffffffffffffffffffff5f54165f557f7f26b83ff96e1f2b6a682f133852f6798a09c465da95921460cefb3847402498602060405160018152a1005b7fffffffffffffffffffff0000ffffffffffffffffffffffffffffffffffffffff167501010000000000000000000000000000000000000000175f5583610279565b60846040517f08c379a000000000000000000000000000000000000000000000000000000000815260206004820152602e60248201527f496e697469616c697a61626c653a20636f6e747261637420697320616c72656160448201527f647920696e697469616c697a65640000000000000000000000000000000000006064820152fd5b50303b15801561022e5750600160ff8360a01c161461022e565b50600160ff8360a01c1610610227565b34610182575f60031936011261018257602060405173ffffffffffffffffffffffffffffffffffffffff7f0000000000000000000000000000000000000000000000000000000000000000168152f35b346101825760206003193601126101825760043567ffffffffffffffff8111610182576104499036906004016112f1565b6104516114ca565b5f815182602082145f1461077c5760209181010312610182576020820151805f52600260205273ffffffffffffffffffffffffffffffffffffffff60405f205416905b806106b2575b5073ffffffffffffffffffffffffffffffffffffffff1690816104f9575b8260405190602082527fbc711f6ecc498ef0e1b6023a7a81c4096cb29c5693d1e935530e6f66ce318a6e3092806104f43394602083019061138b565b0390a3005b6040517fdd62ed3e0000000000000000000000000000000000000000000000000000000081523060048201527f000000000000000000000000000000000000000000000000000000000000000073ffffffffffffffffffffffffffffffffffffffff81166024830152602082604481875afa91821561063f575f9261067e575b50821580159290610660578084101561065b5750825b8061064a575b50505b604051907f70a08231000000000000000000000000000000000000000000000000000000008252306004830152602082602481875afa91821561063f575f9261060b575b5015610604578082101561060457505b80156104b8576105fd9133906118ee565b81806104b8565b90506105ec565b9091506020813d602011610637575b8161062760209383611249565b81010312610182575190856105dc565b3d915061061a565b6040513d5f823e3d90fd5b610654918561172b565b8480610595565b61058f565b8061066d575b5050610598565b610677918561172b565b8480610666565b9091506020813d6020116106aa575b8161069a60209383611249565b8101031261018257519085610579565b3d915061068d565b5f805473ffffffffffffffffffffffffffffffffffffffff908116825260016020908152604080842094845293815283832080547fffffffffffffffffffffffffffffffffffffffffffffffffffffffffffffff00169055600480825284842080546002845286862080547fffffffffffffffffffffffff00000000000000000000000000000000000000001690556003845295852080547fffffffffffffffffffffffffffffffffffffffffffffffffffffffff0000000016905591529190915590925061049a565b6040918101031261018257602082015173ffffffffffffffffffffffffffffffffffffffff6107ad604085016114a9565b1690610494565b34610182575f60031936011261018257602073ffffffffffffffffffffffffffffffffffffffff5f5416604051908152f35b346101825760406003193601126101825773ffffffffffffffffffffffffffffffffffffffff610814611368565b165f52600160205260405f206024355f52602052602060ff60405f2054166040519015158152f35b34610182575f600319360112610182576108546114ca565b5f73ffffffffffffffffffffffffffffffffffffffff81547fffffffffffffffffffffffff000000000000000000000000000000000000000081168355167f8be0079c531659141344cd1fd0a4f28419497f9722a3daafe3b4186f6b6457e08280a3005b34610182576020600319360112610182576108d16114ca565b73ffffffffffffffffffffffffffffffffffffffff5f54165f52600160205260405f206004355f5260205260405f207fffffffffffffffffffffffffffffffffffffffffffffffffffffffffffffff0081541690555f80f35b346101825760206003193601126101825760043567ffffffffffffffff81116101825761095b903690600401611337565b906109646114ca565b7f00000000000000000000000000000000000000000000000000000000000000009073ffffffffffffffffffffffffffffffffffffffff82165f5b8481106109a857005b73ffffffffffffffffffffffffffffffffffffffff6109d06109cb83888761144b565b611488565b6040517fdd62ed3e00000000000000000000000000000000000000000000000000000000815230600482015273ffffffffffffffffffffffffffffffffffffffff87166024820152929160209184916044918391165afa801561063f575f90610ab9575b6001925015610ab457610aae73ffffffffffffffffffffffffffffffffffffffff610a636109cb848a8961144b565b16604051907f095ea7b30000000000000000000000000000000000000000000000000000000060208301528560248301525f604483015260448252610aa9606483611249565b6119b6565b0161099f565b610aae565b506020823d8211610ae3575b81610ad260209383611249565b810103126101825760019151610a34565b3d9150610ac5565b346101825760206003193601126101825760043567ffffffffffffffff811161018257610b1c903690600401611337565b5f5b818110610b2757005b610b3281838561144b565b3590815f52600360205263ffffffff60405f205416158015610e2d575b610e055773ffffffffffffffffffffffffffffffffffffffff5f54165f52600160205260405f20825f5260205260405f207fffffffffffffffffffffffffffffffffffffffffffffffffffffffffffffff008154169055815f52600260205273ffffffffffffffffffffffffffffffffffffffff60405f2054169182610c0b575b600192505f52600360205260405f207fffffffffffffffffffffffffffffffffffffffffffffffffffffffff00000000815416905501610b1e565b805f52600460205260405f2054927f00000000000000000000000000000000000000000000000000000000000000006040517fdd62ed3e00000000000000000000000000000000000000000000000000000000815260208180610c9785306004840190929173ffffffffffffffffffffffffffffffffffffffff60209181604085019616845216910152565b0381865afa90811561063f575f91610dd4575b5080861015610dcf5750845b80610dbe575b5050604051937f70a08231000000000000000000000000000000000000000000000000000000008552306004860152602085602481855afa801561063f575f90610d8c575b6001955080821015610d8557505b80610d5c575b5050805f52600260205260405f207fffffffffffffffffffffffff00000000000000000000000000000000000000008154169055805f5260046020525f6040812055610bd0565b610d7e9173ffffffffffffffffffffffffffffffffffffffff5f5416906118ee565b8580610d15565b9050610d0f565b506020853d8211610db6575b81610da560209383611249565b810103126101825760019451610d01565b3d9150610d98565b610dc8918361172b565b8680610cbc565b610cb6565b90506020813d8211610dfd575b81610dee60209383611249565b81010312610182575188610caa565b3d9150610de1565b7f796c85f3000000000000000000000000000000000000000000000000000000005f5260045ffd5b50815f52600360205263ffffffff60405f205416421115610b4f565b346101825760406003193601126101825760243567ffffffffffffffff811161018257610e7a9036906004016112f1565b506020610e886004356113ce565b7fffffffff0000000000000000000000000000000000000000000000000000000060405191168152f35b34610182575f60031936011261018257602060405173ffffffffffffffffffffffffffffffffffffffff7f0000000000000000000000000000000000000000000000000000000000000000168152f35b346101825760206003193601126101825760043567ffffffffffffffff811161018257610f339036906004016112f1565b610f3b6114ca565b73ffffffffffffffffffffffffffffffffffffffff610f5982611566565b509593949250505016801515806110a5575b83610fad575b8460405190602082527f163d670fa0976fcf4e207d5e2e683636a7d26efb79d136ccbf4a5c4fe9c1575a3092806104f43394602083019061138b565b73ffffffffffffffffffffffffffffffffffffffff5f54165f52600160205260405f20845f5260205260405f2060017fffffffffffffffffffffffffffffffffffffffffffffffffffffffffffffff0082541617905561105d575b505061101382611566565b50509493505050505f52600360205263ffffffff60405f2091167fffffffffffffffffffffffffffffffffffffffffffffffffffffffff0000000082541617905581808080610f71565b825f52600260205260405f20907fffffffffffffffffffffffff0000000000000000000000000000000000000000825416179055815f52600460205260405f20558280611008565b6110f86040517f23b872dd000000000000000000000000000000000000000000000000000000006020820152336024820152306044820152846064820152606481526110f2608482611249565b836119b6565b6040517fdd62ed3e0000000000000000000000000000000000000000000000000000000081523060048201527f000000000000000000000000000000000000000000000000000000000000000073ffffffffffffffffffffffffffffffffffffffff8116602483015290602081604481875afa90811561063f575f91611217575b508481018091116111ea576040517f095ea7b300000000000000000000000000000000000000000000000000000000602082015273ffffffffffffffffffffffffffffffffffffffff92909216602483015260448083019190915281526111e5906110f2606482611249565b610f6b565b7f4e487b71000000000000000000000000000000000000000000000000000000005f52601160045260245ffd5b90506020813d602011611241575b8161123260209383611249565b81010312610182575187611179565b3d9150611225565b90601f7fffffffffffffffffffffffffffffffffffffffffffffffffffffffffffffffe0910116810190811067ffffffffffffffff82111761128a57604052565b7f4e487b71000000000000000000000000000000000000000000000000000000005f52604160045260245ffd5b67ffffffffffffffff811161128a57601f017fffffffffffffffffffffffffffffffffffffffffffffffffffffffffffffffe01660200190565b81601f8201121561018257803590611308826112b7565b926113166040519485611249565b8284526020838301011161018257815f926020809301838601378301015290565b9181601f840112156101825782359167ffffffffffffffff8311610182576020808501948460051b01011161018257565b6004359073ffffffffffffffffffffffffffffffffffffffff8216820361018257565b907fffffffffffffffffffffffffffffffffffffffffffffffffffffffffffffffe0601f602080948051918291828752018686015e5f8582860101520116010190565b73ffffffffffffffffffffffffffffffffffffffff5f54165f52600160205260405f20905f5260205260ff60405f205416611427577fffffffff0000000000000000000000000000000000000000000000000000000090565b7f1626ba7e0000000000000000000000000000000000000000000000000000000090565b919081101561145b5760051b0190565b7f4e487b71000000000000000000000000000000000000000000000000000000005f52603260045260245ffd5b3573ffffffffffffffffffffffffffffffffffffffff811681036101825790565b519073ffffffffffffffffffffffffffffffffffffffff8216820361018257565b73ffffffffffffffffffffffffffffffffffffffff5f541633036114ea57565b60646040517f08c379a000000000000000000000000000000000000000000000000000000000815260206004820152602060248201527f4f776e61626c653a2063616c6c6572206973206e6f7420746865206f776e65726044820152fd5b519063ffffffff8216820361018257565b5190811515820361018257565b80515f919060e081106115e95750905060e0818051810103126101825761158f602082016114a9565b906040810151906115a2606082016114a9565b906080810151906115b560a08201611548565b9073ffffffffffffffffffffffffffffffffffffffff806115dd60e060c08501519401611559565b9293949516959616965b565b60c0811061165b5750905060c0818051810103126101825761160d602082016114a9565b90604081015190611620606082016114a9565b9060808101519073ffffffffffffffffffffffffffffffffffffffff8060c061164b60a08501611548565b9301519293941694951695600190565b60a081106116c4575060a0818051810103126101825761167d602082016114a9565b91604082015191611690606082016114a9565b9173ffffffffffffffffffffffffffffffffffffffff806116b860a060808601519501611548565b93941694951695600190565b8160809181949593010312610182576116df602083016114a9565b9160408101519173ffffffffffffffffffffffffffffffffffffffff80608061170a606086016114a9565b940151931693941694610e1042018042116111ea5763ffffffff1691600190565b6040517fdd62ed3e00000000000000000000000000000000000000000000000000000000815230600482015273ffffffffffffffffffffffffffffffffffffffff8316602482015292916020848060448101038173ffffffffffffffffffffffffffffffffffffffff86165afa93841561063f575f946118ba575b50828410611836576040517f095ea7b300000000000000000000000000000000000000000000000000000000602082015273ffffffffffffffffffffffffffffffffffffffff90911660248201529190920360448201526115e791610aa982606481015b037fffffffffffffffffffffffffffffffffffffffffffffffffffffffffffffffe08101845283611249565b60846040517f08c379a000000000000000000000000000000000000000000000000000000000815260206004820152602960248201527f5361666545524332303a2064656372656173656420616c6c6f77616e6365206260448201527f656c6f77207a65726f00000000000000000000000000000000000000000000006064820152fd5b9093506020813d6020116118e6575b816118d660209383611249565b810103126101825751925f6117a6565b3d91506118c9565b6040517fa9059cbb00000000000000000000000000000000000000000000000000000000602082015273ffffffffffffffffffffffffffffffffffffffff909216602483015260448201929092526115e791610aa9826064810161180a565b73ffffffffffffffffffffffffffffffffffffffff805f54921691827fffffffffffffffffffffffff00000000000000000000000000000000000000008216175f55167f8be0079c531659141344cd1fd0a4f28419497f9722a3daafe3b4186f6b6457e05f80a3565b9073ffffffffffffffffffffffffffffffffffffffff611a4392165f80604051936119e2604086611249565b602085527f5361666545524332303a206c6f772d6c6576656c2063616c6c206661696c6564602086015260208151910182855af13d15611aff573d91611a27836112b7565b92611a356040519485611249565b83523d5f602085013e611b03565b8051908115918215611add575b505015611a5957565b60846040517f08c379a000000000000000000000000000000000000000000000000000000000815260206004820152602a60248201527f5361666545524332303a204552433230206f7065726174696f6e20646964206e60448201527f6f742073756363656564000000000000000000000000000000000000000000006064820152fd5b8192509060209181010312610182576020611af89101611559565b5f80611a50565b6060915b91929015611b7e5750815115611b17575090565b3b15611b205790565b60646040517f08c379a000000000000000000000000000000000000000000000000000000000815260206004820152601d60248201527f416464726573733a2063616c6c20746f206e6f6e2d636f6e74726163740000006044820152fd5b825190915015611b915750805190602001fd5b611bcf906040519182917f08c379a000000000000000000000000000000000000000000000000000000000835260206004840152602483019061138b565b0390fdfea2646970667358221220d27d48699200b7947ec75fbca3244f9cf546371c1598d2da2e1e22aa7eb1b88564736f6c63430008220033","linkReferences":{}},"methodIdentifiers":{"approveHash(bytes32)":"d4d9bdcd","approvedHashes(address,bytes32)":"7d832974","cancelTrade(bytes)":"a04d662a","cleanExpiredOrders(bytes32[])":"2d8fca73","initialize(address)":"c4d66de8","isValidSignature(bytes32,bytes)":"1626ba7e","owner()":"8da5cb5b","permit2()":"12261ee7","reactor()":"ab572650","renounceOwnership()":"715018a6","revokeApprovals(address[])":"6cf0859c","revokeHash(bytes32)":"70de43f1","trade(bytes)":"1037ea51","transferOwnership(address)":"f2fde38b"},"id":42}