{"abi":[{"type":"constructor","inputs":[{"name":"settlement_","type":"address","internalType":"address"},{"name":"vaultRelayer_","type":"address","internalType":"address"}],"stateMutability":"nonpayable"},{"type":"receive","stateMutability":"payable"},{"type":"function","name":"approveOrderDigest","inputs":[{"name":"orderDigest","type":"bytes32","internalType":"bytes32"}],"outputs":[],"stateMutability":"nonpayable"},{"type":"function","name":"approvedOrderDigests","inputs":[{"name":"","type":"address","internalType":"address"},{"name":"","type":"bytes32","internalType":"bytes32"}],"outputs":[{"name":"","type":"bool","internalType":"bool"}],"stateMutability":"view"},{"type":"function","name":"cancelTrade","inputs":[{"name":"data","type":"bytes","internalType":"bytes"}],"outputs":[],"stateMutability":"nonpayable"},{"type":"function","name":"cleanExpiredOrders","inputs":[{"name":"orderDigests","type":"bytes32[]","internalType":"bytes32[]"}],"outputs":[],"stateMutability":"nonpayable"},{"type":"function","name":"getOrderDigest","inputs":[{"name":"order","type":"tuple","internalType":"struct GPv2Order.Data","components":[{"name":"sellToken","type":"address","internalType":"contract IERC20"},{"name":"buyToken","type":"address","internalType":"contract IERC20"},{"name":"receiver","type":"address","internalType":"address"},{"name":"sellAmount","type":"uint256","internalType":"uint256"},{"name":"buyAmount","type":"uint256","internalType":"uint256"},{"name":"validTo","type":"uint32","internalType":"uint32"},{"name":"appData","type":"bytes32","internalType":"bytes32"},{"name":"feeAmount","type":"uint256","internalType":"uint256"},{"name":"kind","type":"bytes32","internalType":"bytes32"},{"name":"partiallyFillable","type":"bool","internalType":"bool"},{"name":"sellTokenBalance","type":"bytes32","internalType":"bytes32"},{"name":"buyTokenBalance","type":"bytes32","internalType":"bytes32"}]}],"outputs":[{"name":"","type":"bytes32","internalType":"bytes32"}],"stateMutability":"view"},{"type":"function","name":"getOrderUid","inputs":[{"name":"order","type":"tuple","internalType":"struct GPv2Order.Data","components":[{"name":"sellToken","type":"address","internalType":"contract IERC20"},{"name":"buyToken","type":"address","internalType":"contract IERC20"},{"name":"receiver","type":"address","internalType":"address"},{"name":"sellAmount","type":"uint256","internalType":"uint256"},{"name":"buyAmount","type":"uint256","internalType":"uint256"},{"name":"validTo","type":"uint32","internalType":"uint32"},{"name":"appData","type":"bytes32","internalType":"bytes32"},{"name":"feeAmount","type":"uint256","internalType":"uint256"},{"name":"kind","type":"bytes32","internalType":"bytes32"},{"name":"partiallyFillable","type":"bool","internalType":"bool"},{"name":"sellTokenBalance","type":"bytes32","internalType":"bytes32"},{"name":"buyTokenBalance","type":"bytes32","internalType":"bytes32"}]}],"outputs":[{"name":"","type":"bytes","internalType":"bytes"}],"stateMutability":"view"},{"type":"function","name":"initialize","inputs":[{"name":"newOwner","type":"address","internalType":"address"}],"outputs":[],"stateMutability":"nonpayable"},{"type":"function","name":"isValidSignature","inputs":[{"name":"hash","type":"bytes32","internalType":"bytes32"},{"name":"","type":"bytes","internalType":"bytes"}],"outputs":[{"name":"","type":"bytes4","internalType":"bytes4"}],"stateMutability":"view"},{"type":"function","name":"owner","inputs":[],"outputs":[{"name":"","type":"address","internalType":"address"}],"stateMutability":"view"},{"type":"function","name":"renounceOwnership","inputs":[],"outputs":[],"stateMutability":"nonpayable"},{"type":"function","name":"revokeApprovals","inputs":[{"name":"tokens","type":"address[]","internalType":"address[]"}],"outputs":[],"stateMutability":"nonpayable"},{"type":"function","name":"revokeOrderDigest","inputs":[{"name":"orderDigest","type":"bytes32","internalType":"bytes32"}],"outputs":[],"stateMutability":"nonpayable"},{"type":"function","name":"settlement","inputs":[],"outputs":[{"name":"","type":"address","internalType":"contract IGPv2Settlement"}],"stateMutability":"view"},{"type":"function","name":"trade","inputs":[{"name":"data","type":"bytes","internalType":"bytes"}],"outputs":[],"stateMutability":"nonpayable"},{"type":"function","name":"transferOwnership","inputs":[{"name":"newOwner","type":"address","internalType":"address"}],"outputs":[],"stateMutability":"nonpayable"},{"type":"function","name":"vaultRelayer","inputs":[],"outputs":[{"name":"","type":"address","internalType":"address"}],"stateMutability":"view"},{"type":"event","name":"CancelTrade","inputs":[{"name":"data","type":"bytes","indexed":false,"internalType":"bytes"},{"name":"sender","type":"address","indexed":true,"internalType":"address"},{"name":"provider","type":"address","indexed":true,"internalType":"address"}],"anonymous":false},{"type":"event","name":"Initialized","inputs":[{"name":"version","type":"uint8","indexed":false,"internalType":"uint8"}],"anonymous":false},{"type":"event","name":"OwnershipTransferred","inputs":[{"name":"previousOwner","type":"address","indexed":true,"internalType":"address"},{"name":"newOwner","type":"address","indexed":true,"internalType":"address"}],"anonymous":false},{"type":"event","name":"Trade","inputs":[{"name":"data","type":"bytes","indexed":false,"internalType":"bytes"},{"name":"sender","type":"address","indexed":true,"internalType":"address"},{"name":"provider","type":"address","indexed":true,"internalType":"address"}],"anonymous":false},{"type":"error","name":"OrderNotExpired","inputs":[]}],"bytecode":{"object":"0x60c03461010657601f61231638819003918201601f19168301916001600160401b0383118484101761010a57808492604094855283398101031261010657610052602061004b8361011e565b920161011e565b5f8054336001600160a01b0319821681178355604051949290916001600160a01b0316907f8be0079c531659141344cd1fd0a4f28419497f9722a3daafe3b4186f6b6457e09080a36001600160a01b031660805260a0526121e39081610133823960805181818161037c0152818161072501528181610c8a01528181610d0e01528181610fd50152611581015260a05181818161062d0152818161090901528181610d4b01528181610f5601526110f70152f35b5f80fd5b634e487b7160e01b5f52604160045260245ffd5b51906001600160a01b03821682036101065756fe6080604052600436101561001a575b3615610018575f80fd5b005b5f3560e01c80631037ea51146101195780631626ba7e146101145780632d8fca731461010f5780633ca2318f1461010a578063426fda011461010557806351160630146101005780636cf0859c146100fb578063715018a6146100f65780638da5cb5b146100f157806396ae0380146100ec5780639b552cc2146100e7578063a04d662a146100e2578063c3b9f130146100dd578063c4d66de8146100d8578063f2fde38b146100d35763f5f7d3bc0361000e5761153c565b611427565b6112ad565b61125e565b610f7a565b610f37565b610ed1565b610eac565b610e3d565b610d32565b610cef565b610c46565b610af3565b610715565b610657565b610255565b7f4e487b71000000000000000000000000000000000000000000000000000000005f52604160045260245ffd5b90601f7fffffffffffffffffffffffffffffffffffffffffffffffffffffffffffffffe0910116810190811067ffffffffffffffff82111761018c57604052565b61011e565b604051906101a16101808361014b565b565b67ffffffffffffffff811161018c57601f017fffffffffffffffffffffffffffffffffffffffffffffffffffffffffffffffe01660200190565b81601f82011215610223578035906101f4826101a3565b92610202604051948561014b565b8284526020838301011161022357815f926020809301838601378301015290565b5f80fd5b6020600319820112610223576004359067ffffffffffffffff821161022357610252916004016101dd565b90565b346102235761026336610227565b61026b6117b1565b6102748161192d565b926001600160a01b038693969592951695861515948561061b575b156105e9576102ed6001600160a01b037ff3b277728b3fee749481eb3e0b3b48980dbbab78658fc419025cb16eee346775935b6102dc6102cd610191565b6001600160a01b03909b168b52565b166001600160a01b03166020890152565b33604088015260608701839052608087015263ffffffff851660a08701525f60c08701525f60e08701526101008601525f6101208601527f5a28e9363bb942b639270062aa6bb295f434bcdfc42c97267bf003f272060dc96101408601527f5a28e9363bb942b639270062aa6bb295f434bcdfc42c97267bf003f272060dc96101608601526001600160a01b037f00000000000000000000000000000000000000000000000000000000000000001694604051907ff698da250000000000000000000000000000000000000000000000000000000082526020826004818a5afa9081156105b3576103e5925f926105b8575b50611bc4565b916103f1853085611ce0565b9561045c6104318561042461040d6001600160a01b035f541690565b6001600160a01b03165f52600160205260405f2090565b905f5260205260405f2090565b60017fffffffffffffffffffffffffffffffffffffffffffffffffffffffffffffff00825416179055565b803b15610223576104a05f97918892604051998a809481937fec6cb13f0000000000000000000000000000000000000000000000000000000083526004830161161f565b03925af19384156105b3576104fe966104ce95610599575b50610536575b50505f52600360205260405f2090565b9063ffffffff167fffffffffffffffffffffffffffffffffffffffffffffffffffffffff00000000825416179055565b604051907f163d670fa0976fcf4e207d5e2e683636a7d26efb79d136ccbf4a5c4fe9c1575a30928061053133948261152b565b0390a3005b61057f9061054c845f52600260205260405f2090565b906001600160a01b03167fffffffffffffffffffffffff0000000000000000000000000000000000000000825416179055565b610591825f52600460205260405f2090565b555f806104be565b806105a75f6105ad9361014b565b80610ce5565b5f6104b8565b611614565b6105db91925060203d6020116105e2575b6105d3818361014b565b810190611605565b905f6103df565b503d6105c9565b6102ed6001600160a01b037f6ed88e868af0a1983e3886d5f3e95a2fafbd6c3450bc229e27342283dc429ccc936102c2565b6106278430338b6119c2565b610652847f00000000000000000000000000000000000000000000000000000000000000008a611a21565b61028f565b346102235760406003193601126102235760043560243567ffffffffffffffff8111610223576020916106916106979236906004016101dd565b50611653565b7fffffffff0000000000000000000000000000000000000000000000000000000060405191168152f35b9060206003198301126102235760043567ffffffffffffffff81116102235760040182601f820112156102235780359267ffffffffffffffff8411610223576020808301928560051b010111610223579190565b3461022357610723366106c1565b7f00000000000000000000000000000000000000000000000000000000000000006001600160a01b031691905f5b81811061075a57005b6107658183856116c3565b359061079261078961077f845f52600360205260405f2090565b5463ffffffff1690565b63ffffffff1690565b158015610ad2575b610aaa576107e16107b98361042461040d6001600160a01b035f541690565b7fffffffffffffffffffffffffffffffffffffffffffffffffffffffffffffff008154169055565b6108006107f961077f845f52600360205260405f2090565b3084611ce0565b853b15610223575f61083f91604051809381927fec6cb13f0000000000000000000000000000000000000000000000000000000083526004830161163c565b0381838a5af180156105b357610a96575b506001600160a01b0361087b61086e845f52600260205260405f2090565b546001600160a01b031690565b16806108c8575b506108c261089a6001935f52600360205260405f2090565b7fffffffffffffffffffffffffffffffffffffffffffffffffffffffff000000008154169055565b01610751565b6108da835f52600460205260405f2090565b546040517fdd62ed3e0000000000000000000000000000000000000000000000000000000081523060048201527f00000000000000000000000000000000000000000000000000000000000000006001600160a01b038116602483015291949190602081604481875afa9081156105b3575f91610a78575b5080861015610a735750845b80610a62575b50506040517f70a0823100000000000000000000000000000000000000000000000000000000815230600482015290602082602481865afa9283156105b3576001956108c29461089a945f91610a44575b5080821015610a3d57505b80610a1b575b5050610a056109dd825f52600260205260405f2090565b7fffffffffffffffffffffffff00000000000000000000000000000000000000008154169055565b5f81815260046020526040812055935050610882565b610a3691610a306001600160a01b035f541690565b90611e85565b5f806109c6565b90506109c0565b610a5c915060203d81116105e2576105d3818361014b565b5f6109b5565b610a6c9184611d9b565b5f80610964565b61095e565b610a90915060203d81116105e2576105d3818361014b565b5f610952565b806105a75f610aa49361014b565b5f610850565b7f796c85f3000000000000000000000000000000000000000000000000000000005f5260045ffd5b50610aeb61078961077f845f52600360205260405f2090565b42111561079a565b3461022357602060031936011261022357600435610b0f6117b1565b6001600160a01b035f54165f52600160205260405f20905f5260205260405f2060017fffffffffffffffffffffffffffffffffffffffffffffffffffffffffffffff008254161790555f80f35b6001600160a01b0381160361022357565b35906101a182610b5c565b63ffffffff81160361022357565b35906101a182610b78565b8015150361022357565b35906101a182610b91565b60031961018091011261022357610bbb610191565b610bc56004610b6d565b8152610bd16024610b6d565b6020820152610be06044610b6d565b604082015260643560608201526084356080820152610bff60a4610b86565b60a082015260c43560c082015260e43560e082015261010435610100820152610c29610124610b9b565b610120820152610144356101408201526101643561016082015290565b3461022357610c5436610ba6565b6040517ff698da250000000000000000000000000000000000000000000000000000000081526020816004816001600160a01b037f0000000000000000000000000000000000000000000000000000000000000000165afa80156105b357602092610cc5925f92610ccd5750611bc4565b604051908152f35b6105db919250843d86116105e2576105d3818361014b565b5f91031261022357565b34610223575f6003193601126102235760206040516001600160a01b037f0000000000000000000000000000000000000000000000000000000000000000168152f35b3461022357610d40366106c1565b90610d496117b1565b7f0000000000000000000000000000000000000000000000000000000000000000905f5b838110610d7657005b610d9b610d8f610d8f610d8a8488876116c3565b611700565b6001600160a01b031690565b6040517fdd62ed3e0000000000000000000000000000000000000000000000000000000081523060048201526001600160a01b03851660248201529190602090839060449082905afa80156105b3576001925f91610e1f575b5015610e1a57610e1484610e0f610d8f610d8a858a896116c3565b611ed7565b01610d6d565b610e14565b610e37915060203d81116105e2576105d3818361014b565b5f610df4565b34610223575f60031936011261022357610e556117b1565b5f6001600160a01b0381547fffffffffffffffffffffffff000000000000000000000000000000000000000081168355167f8be0079c531659141344cd1fd0a4f28419497f9722a3daafe3b4186f6b6457e08280a3005b34610223575f6003193601126102235760206001600160a01b035f5416604051908152f35b3461022357602060031936011261022357600435610eed6117b1565b6001600160a01b035f54165f52600160205260405f20905f5260205260405f207fffffffffffffffffffffffffffffffffffffffffffffffffffffffffffffff0081541690555f80f35b34610223575f6003193601126102235760206040516001600160a01b037f0000000000000000000000000000000000000000000000000000000000000000168152f35b3461022357610f8836610227565b610f906117b1565b610fcb610fa6602083518401016020840161170a565b610fc46107b98361042461040d5f979697546001600160a01b031690565b3083611ce0565b6001600160a01b037f000000000000000000000000000000000000000000000000000000000000000016803b15610223576110395f929183926040519485809481937fec6cb13f0000000000000000000000000000000000000000000000000000000083526004830161163c565b03925af180156105b35761124a575b506001600160a01b0361106661086e835f52600260205260405f2090565b16806110b6575b5061089a611083915f52600360205260405f2090565b604051907fbc711f6ecc498ef0e1b6023a7a81c4096cb29c5693d1e935530e6f66ce318a6e30928061053133948261152b565b6110c8825f52600460205260405f2090565b546040517fdd62ed3e0000000000000000000000000000000000000000000000000000000081523060048201527f00000000000000000000000000000000000000000000000000000000000000006001600160a01b038116602483015291939190602081604481875afa9081156105b3575f9161122b575b50808510156112265750835b80611215575b50506040517f70a0823100000000000000000000000000000000000000000000000000000000815230600482015291602083602481845afa9384156105b3576110839461089a945f916111f6575b50808210156111ef57505b806111dd575b50506111c86109dd825f52600260205260405f2090565b5f81815260046020526040812055915061106d565b6111e8913390611e85565b5f806111b1565b90506111ab565b61120f915060203d6020116105e2576105d3818361014b565b5f6111a0565b61121f9184611d9b565b5f80611152565b61114c565b611244915060203d6020116105e2576105d3818361014b565b5f611140565b806105a75f6112589361014b565b5f611048565b346102235760406003193601126102235760043561127b81610b5c565b6001600160a01b0360243591165f52600160205260405f20905f52602052602060ff60405f2054166040519015158152f35b34610223576020600319360112610223576004356112ca81610b5c565b61134a5f54916112fe6112e86112e48560ff9060a81c1690565b1590565b80948195611415575b81156113f2575b50611726565b82611341740100000000000000000000000000000000000000007fffffffffffffffffffffff00ffffffffffffffffffffffffffffffffffffffff5f5416175f55565b6113aa57611f2c565b61135057005b61137b7fffffffffffffffffffff00ffffffffffffffffffffffffffffffffffffffffff5f54165f55565b604051600181527f7f26b83ff96e1f2b6a682f133852f6798a09c465da95921460cefb384740249890602090a1005b6113ed75010000000000000000000000000000000000000000007fffffffffffffffffffff00ffffffffffffffffffffffffffffffffffffffffff5f5416175f55565b611f2c565b303b15915081611404575b505f6112f8565b60a01c60ff1660011490505f6113fd565b600160a082901c60ff161091506112f1565b346102235760206003193601126102235760043561144481610b5c565b61144c6117b1565b6001600160a01b038116156114645761001890611f2c565b60846040517f08c379a000000000000000000000000000000000000000000000000000000000815260206004820152602660248201527f4f776e61626c653a206e6577206f776e657220697320746865207a65726f206160448201527f64647265737300000000000000000000000000000000000000000000000000006064820152fd5b907fffffffffffffffffffffffffffffffffffffffffffffffffffffffffffffffe0601f602080948051918291828752018686015e5f8582860101520116010190565b9060206102529281815201906114e8565b346102235761154a36610ba6565b604051907ff698da250000000000000000000000000000000000000000000000000000000082526020826004816001600160a01b037f0000000000000000000000000000000000000000000000000000000000000000165afa9081156105b35763ffffffff60a06115ca6115d6946115e2965f916115e6575b5084611bc4565b92015116903090611ce0565b6040519182918261152b565b0390f35b6115ff915060203d6020116105e2576105d3818361014b565b5f6115c3565b90816020910312610223575190565b6040513d5f823e3d90fd5b919060206116376001926040865260408601906114e8565b930152565b919060206116375f926040865260408601906114e8565b6001600160a01b035f54165f52600160205260405f20905f5260205260ff60405f20541661169f577fffffffff0000000000000000000000000000000000000000000000000000000090565b7f1626ba7e0000000000000000000000000000000000000000000000000000000090565b91908110156116d35760051b0190565b7f4e487b71000000000000000000000000000000000000000000000000000000005f52603260045260245ffd5b3561025281610b5c565b9190826040910312610223576020825192015161025281610b78565b1561172d57565b60846040517f08c379a000000000000000000000000000000000000000000000000000000000815260206004820152602e60248201527f496e697469616c697a61626c653a20636f6e747261637420697320616c72656160448201527f647920696e697469616c697a65640000000000000000000000000000000000006064820152fd5b6001600160a01b035f541633036117c457565b60646040517f08c379a000000000000000000000000000000000000000000000000000000000815260206004820152602060248201527f4f776e61626c653a2063616c6c6572206973206e6f7420746865206f776e65726044820152fd5b919082608091031261022357815161183981610b5c565b916020810151916060604083015161185081610b5c565b92015190565b90610e10820180921161186557565b7f4e487b71000000000000000000000000000000000000000000000000000000005f52601160045260245ffd5b9190820180921161186557565b908160a09103126102235780516118b581610b5c565b9160208201519160408101516118ca81610b5c565b916080606083015192015161025281610b78565b91908260c09103126102235781516118f581610b5c565b91602081015191604082015161190a81610b5c565b9160608101519160a0608083015161192181610b78565b92015161025281610b91565b80516001600160a01b039182919060c08210611968576119579150602080825183010191016118de565b949096169692959190941693929091565b60a082106119945761198491506020808251830101910161189f565b9590931695919493169290600190565b6020806119a5938301019101611822565b92909416949093909216916119bc61078942611856565b90600190565b9091926001600160a01b036101a19481604051957f23b872dd000000000000000000000000000000000000000000000000000000006020880152166024860152166044840152606483015260648252611a1c60848361014b565b612028565b6040517fdd62ed3e0000000000000000000000000000000000000000000000000000000081523060048201526001600160a01b0383166024820152602081806044810103816001600160a01b0386165afa9081156105b3576101a194611a1c92611a92925f91611b02575b50611892565b6040517f095ea7b30000000000000000000000000000000000000000000000000000000060208201526001600160a01b039094166024850152604484015282606481015b037fffffffffffffffffffffffffffffffffffffffffffffffffffffffffffffffe0810184528361014b565b611b1b915060203d6020116105e2576105d3818361014b565b5f611a8c565b99979593919c9b9a98969492909c6101a08b019d7fd5a25ba2e97094ad7d83dc28a6572da797d6b3e7fc6663bd93efb789fc17e4898c526001600160a01b031660208c01526001600160a01b031660408b01526001600160a01b031660608a0152608089015260a088015260c08701611b9e9163ffffffff169052565b60e086015261010085015261012084015215156101408301526101608201526101800152565b80516001600160a01b0316906020810151611be5906001600160a01b031690565b916040820151611bfb906001600160a01b031690565b9060608301519260808101519060a0810151611c1a9063ffffffff1690565b60c082015160e083015161010084015191610120850151611c3a90151590565b93610140860151956101600151966040519a8b9a60208c019d611c5d9b8f611b21565b037fffffffffffffffffffffffffffffffffffffffffffffffffffffffffffffffe081018252611c8d908261014b565b5190206040517f1901000000000000000000000000000000000000000000000000000000000000602082019081526022820193909352604280820192909252908152611cda60628261014b565b51902090565b9092919260405190611cf360608361014b565b603882526020820191603490604036853780966038820152015252565b15611d1757565b60846040517f08c379a000000000000000000000000000000000000000000000000000000000815260206004820152602960248201527f5361666545524332303a2064656372656173656420616c6c6f77616e6365206260448201527f656c6f77207a65726f00000000000000000000000000000000000000000000006064820152fd5b6040517fdd62ed3e0000000000000000000000000000000000000000000000000000000081523060048201526001600160a01b0383166024820152919291602081806044810103816001600160a01b0386165afa80156105b3576101a194611a1c925f92611e60575b50611ad690611e1586841015611d10565b6040517f095ea7b30000000000000000000000000000000000000000000000000000000060208201526001600160a01b03909116602482015294909103604485015283906064820190565b611ad6919250611e7e9060203d6020116105e2576105d3818361014b565b9190611e04565b6040517fa9059cbb0000000000000000000000000000000000000000000000000000000060208201526001600160a01b03909216602483015260448201929092526101a191611a1c8260648101611ad6565b6040517f095ea7b30000000000000000000000000000000000000000000000000000000060208201526001600160a01b0390921660248301525f60448084019190915282526101a19190611a1c60648361014b565b6001600160a01b03805f54921691827fffffffffffffffffffffffff00000000000000000000000000000000000000008216175f55167f8be0079c531659141344cd1fd0a4f28419497f9722a3daafe3b4186f6b6457e05f80a3565b90816020910312610223575161025281610b91565b15611fa457565b60846040517f08c379a000000000000000000000000000000000000000000000000000000000815260206004820152602a60248201527f5361666545524332303a204552433230206f7065726174696f6e20646964206e60448201527f6f742073756363656564000000000000000000000000000000000000000000006064820152fd5b6101a1916001600160a01b036120ab92165f806040519361204a60408661014b565b602085527f5361666545524332303a206c6f772d6c6576656c2063616c6c206661696c6564602086015260208151910182855af13d156120d9573d9161208f836101a3565b9261209d604051948561014b565b83523d5f602085013e6120dd565b80519081159182156120bf575b5050611f9d565b6120d29250602080918301019101611f88565b5f806120b8565b6060915b9192901561215857508151156120f1575090565b3b156120fa5790565b60646040517f08c379a000000000000000000000000000000000000000000000000000000000815260206004820152601d60248201527f416464726573733a2063616c6c20746f206e6f6e2d636f6e74726163740000006044820152fd5b82519091501561216b5750805190602001fd5b6121a9906040519182917f08c379a00000000000000000000000000000000000000000000000000000000083526020600484015260248301906114e8565b0390fdfea2646970667358221220d1d4077668b18ced2292df2ecb0da0272d2455c7ca3210c18c95cc9d4a4ac23e64736f6c63430008220033","linkReferences":{}},"methodIdentifiers":{"approveOrderDigest(bytes32)":"3ca2318f","approvedOrderDigests(address,bytes32)":"c3b9f130","cancelTrade(bytes)":"a04d662a","cleanExpiredOrders(bytes32[])":"2d8fca73","getOrderDigest((address,address,address,uint256,uint256,uint32,bytes32,uint256,bytes32,bool,bytes32,bytes32))":"426fda01","getOrderUid((address,address,address,uint256,uint256,uint32,bytes32,uint256,bytes32,bool,bytes32,bytes32))":"f5f7d3bc","initialize(address)":"c4d66de8","isValidSignature(bytes32,bytes)":"1626ba7e","owner()":"8da5cb5b","renounceOwnership()":"715018a6","revokeApprovals(address[])":"6cf0859c","revokeOrderDigest(bytes32)":"96ae0380","settlement()":"51160630","trade(bytes)":"1037ea51","transferOwnership(address)":"f2fde38b","vaultRelayer()":"9b552cc2"},"id":41}